{
  "contractName": "PharmaChainTracking",
  "abi": [
    {
      "anonymous": false,
      "inputs": [
        {
          "indexed": true,
          "internalType": "uint256",
          "name": "requestNo",
          "type": "uint256"
        },
        {
          "indexed": false,
          "internalType": "string",
          "name": "DataCategory",
          "type": "string"
        },
        {
          "indexed": false,
          "internalType": "uint256",
          "name": "tempValues",
          "type": "uint256"
        },
        {
          "indexed": false,
          "internalType": "uint256",
          "name": "HumidValues",
          "type": "uint256"
        },
        {
          "indexed": true,
          "internalType": "uint256",
          "name": "timestamp",
          "type": "uint256"
        }
      ],
      "name": "DataSent",
      "type": "event"
    },
    {
      "anonymous": false,
      "inputs": [
        {
          "indexed": true,
          "internalType": "uint256",
          "name": "requestNo",
          "type": "uint256"
        },
        {
          "indexed": false,
          "internalType": "string",
          "name": "state",
          "type": "string"
        },
        {
          "indexed": true,
          "internalType": "uint256",
          "name": "timestamp",
          "type": "uint256"
        }
      ],
      "name": "ShipmentStateUpdate",
      "type": "event"
    },
    {
      "inputs": [],
      "name": "returnContractAddress",
      "outputs": [
        {
          "internalType": "address",
          "name": "",
          "type": "address"
        }
      ],
      "stateMutability": "view",
      "type": "function",
      "constant": true
    },
    {
      "inputs": [
        {
          "internalType": "address",
          "name": "_contract",
          "type": "address"
        }
      ],
      "name": "setContract",
      "outputs": [],
      "stateMutability": "nonpayable",
      "type": "function"
    },
    {
      "inputs": [
        {
          "internalType": "uint256",
          "name": "_requestId",
          "type": "uint256"
        },
        {
          "internalType": "uint256",
          "name": "_totalPayment",
          "type": "uint256"
        }
      ],
      "name": "approveRequest",
      "outputs": [],
      "stateMutability": "nonpayable",
      "type": "function"
    },
    {
      "inputs": [
        {
          "internalType": "uint256",
          "name": "_id",
          "type": "uint256"
        }
      ],
      "name": "verifyShipmentState",
      "outputs": [
        {
          "internalType": "string",
          "name": "",
          "type": "string"
        }
      ],
      "stateMutability": "nonpayable",
      "type": "function"
    },
    {
      "inputs": [
        {
          "internalType": "uint256",
          "name": "_requestId",
          "type": "uint256"
        }
      ],
      "name": "sendShipment",
      "outputs": [],
      "stateMutability": "nonpayable",
      "type": "function"
    },
    {
      "inputs": [
        {
          "internalType": "uint256",
          "name": "_requestId",
          "type": "uint256"
        }
      ],
      "name": "globalTransitShipment",
      "outputs": [],
      "stateMutability": "nonpayable",
      "type": "function"
    },
    {
      "inputs": [
        {
          "internalType": "uint256",
          "name": "_requestId",
          "type": "uint256"
        }
      ],
      "name": "localTransitShipment",
      "outputs": [],
      "stateMutability": "nonpayable",
      "type": "function"
    },
    {
      "inputs": [
        {
          "internalType": "uint256",
          "name": "_requestId",
          "type": "uint256"
        },
        {
          "internalType": "uint256",
          "name": "_totalPayment",
          "type": "uint256"
        }
      ],
      "name": "receiveShipment",
      "outputs": [],
      "stateMutability": "nonpayable",
      "type": "function"
    },
    {
      "inputs": [
        {
          "internalType": "uint256",
          "name": "_requestId",
          "type": "uint256"
        },
        {
          "internalType": "string",
          "name": "_requestStatus",
          "type": "string"
        },
        {
          "internalType": "string",
          "name": "_shipmentStatus",
          "type": "string"
        },
        {
          "internalType": "string",
          "name": "_description",
          "type": "string"
        }
      ],
      "name": "createLog",
      "outputs": [],
      "stateMutability": "nonpayable",
      "type": "function"
    },
    {
      "inputs": [
        {
          "internalType": "uint256",
          "name": "_id",
          "type": "uint256"
        },
        {
          "internalType": "uint256",
          "name": "_temp",
          "type": "uint256"
        },
        {
          "internalType": "uint256",
          "name": "_humid",
          "type": "uint256"
        }
      ],
      "name": "setShipmentTrackData",
      "outputs": [],
      "stateMutability": "nonpayable",
      "type": "function"
    },
    {
      "inputs": [
        {
          "internalType": "uint256",
          "name": "_id",
          "type": "uint256"
        }
      ],
      "name": "getShipmentTrackData",
      "outputs": [
        {
          "internalType": "uint256[]",
          "name": "temp",
          "type": "uint256[]"
        },
        {
          "internalType": "uint256[]",
          "name": "humid",
          "type": "uint256[]"
        }
      ],
      "stateMutability": "view",
      "type": "function",
      "constant": true
    },
    {
      "inputs": [
        {
          "internalType": "uint256",
          "name": "_request",
          "type": "uint256"
        }
      ],
      "name": "getTrackLogs",
      "outputs": [
        {
          "components": [
            {
              "internalType": "address",
              "name": "logger",
              "type": "address"
            },
            {
              "internalType": "string",
              "name": "requestStatus",
              "type": "string"
            },
            {
              "internalType": "string",
              "name": "description",
              "type": "string"
            },
            {
              "internalType": "string",
              "name": "shipmentStatus",
              "type": "string"
            },
            {
              "internalType": "uint256",
              "name": "logTime",
              "type": "uint256"
            }
          ],
          "internalType": "struct PharmaChainTracking.Log[]",
          "name": "",
          "type": "tuple[]"
        }
      ],
      "stateMutability": "view",
      "type": "function",
      "constant": true
    },
    {
      "inputs": [],
      "name": "getAllTrack",
      "outputs": [
        {
          "components": [
            {
              "internalType": "address",
              "name": "logger",
              "type": "address"
            },
            {
              "internalType": "string",
              "name": "requestStatus",
              "type": "string"
            },
            {
              "internalType": "string",
              "name": "description",
              "type": "string"
            },
            {
              "internalType": "string",
              "name": "shipmentStatus",
              "type": "string"
            },
            {
              "internalType": "uint256",
              "name": "logTime",
              "type": "uint256"
            }
          ],
          "internalType": "struct PharmaChainTracking.Log[]",
          "name": "",
          "type": "tuple[]"
        }
      ],
      "stateMutability": "view",
      "type": "function",
      "constant": true
    },
    {
      "inputs": [
        {
          "internalType": "uint256",
          "name": "_id",
          "type": "uint256"
        },
        {
          "internalType": "string",
          "name": "_lat",
          "type": "string"
        },
        {
          "internalType": "string",
          "name": "_long",
          "type": "string"
        }
      ],
      "name": "setShipmentLocation",
      "outputs": [],
      "stateMutability": "nonpayable",
      "type": "function"
    },
    {
      "inputs": [
        {
          "internalType": "uint256",
          "name": "_id",
          "type": "uint256"
        }
      ],
      "name": "getShipmentLocation",
      "outputs": [
        {
          "components": [
            {
              "internalType": "string",
              "name": "Latitude",
              "type": "string"
            },
            {
              "internalType": "string",
              "name": "Longitude",
              "type": "string"
            }
          ],
          "internalType": "struct PharmaChainTracking.Location[]",
          "name": "",
          "type": "tuple[]"
        }
      ],
      "stateMutability": "view",
      "type": "function",
      "constant": true
    },
    {
      "inputs": [
        {
          "internalType": "uint256",
          "name": "_id",
          "type": "uint256"
        },
        {
          "internalType": "string",
          "name": "_method",
          "type": "string"
        }
      ],
      "name": "setShipmentMethod",
      "outputs": [],
      "stateMutability": "nonpayable",
      "type": "function"
    },
    {
      "inputs": [
        {
          "internalType": "uint256",
          "name": "_id",
          "type": "uint256"
        }
      ],
      "name": "getShipmentMethod",
      "outputs": [
        {
          "internalType": "string",
          "name": "",
          "type": "string"
        }
      ],
      "stateMutability": "view",
      "type": "function",
      "constant": true
    }
  ],
  "bytecode": "0x60806040526028600055603260015534801561001a57600080fd5b50611f998061002a6000396000f3fe608060405234801561001057600080fd5b506004361061010b5760003560e01c8063420777de116100a25780637fe54a10116100715780637fe54a10146102105780638c0c2568146102235780639684447b146102365780639a53288914610256578063a45aebfe146102775761010b565b8063420777de146101cf578063502bdedd146101e25780636185eaf8146101f557806375f890ab146101fd5761010b565b80631799e039116100de5780631799e0391461018357806324d29513146101965780632831f4c2146101a95780632c0a90a9146101bc5761010b565b80630589a27c146101105780630b4fb06d1461012e578063126a403b1461014357806312917b8e14610163575b600080fd5b61011861028a565b60405161012591906119f0565b60405180910390f35b61014161013c3660046117e9565b61028e565b005b6101566101513660046117e9565b6103f6565b6040516101259190611b89565b6101766101713660046117e9565b610529565b6040516101259190611aaa565b6101566101913660046117e9565b610771565b6101416101a43660046118b0565b610813565b6101416101b736600461193e565b610a19565b6101416101ca36600461193e565b610bee565b6101416101dd3660046117e9565b610deb565b6101416101f036600461195f565b610e72565b610176610fbc565b61014161020b3660046116bc565b6111f1565b61014161021e3660046117e9565b611220565b610141610231366004611846565b6112a9565b6102496102443660046117e9565b611311565b6040516101259190611a28565b6102696102643660046117e9565b61149c565b604051610125929190611b5b565b610141610285366004611801565b611561565b3090565b6000610299826103f6565b90506102e6826040518060400160405280600f81526020016e141050d2d051d14810d49150551151608a1b815250836040518060600160405280603e8152602001611e9d603e9139610813565b600654604051630e96e43760e01b81526001600160a01b0390911690630e96e4379061031490600401611c3d565b600060405180830381600087803b15801561032e57600080fd5b505af1158015610342573d6000803e3d6000fd5b50505050610392826040518060400160405280601081526020016f4f555420464f52205348495050494e4760801b81525083604051806060016040528060228152602001611e7b60229139610813565b600654604051630e96e43760e01b81526001600160a01b0390911690630e96e437906103c090600401611cc3565b600060405180830381600087803b1580156103da57600080fd5b505af11580156103ee573d6000803e3d6000fd5b505050505050565b606080600054600260016002805490506104109190611d97565b8154811061042e57634e487b7160e01b600052603260045260246000fd5b90600052602060002001541015806104845750600154600360016003805490506104589190611d97565b8154811061047657634e487b7160e01b600052603260045260246000fd5b906000526020600020015410155b156104d8576040518060400160405280600881526020016710509393d493505360c21b81525090504283600080516020611f44833981519152836040516104cb9190611b89565b60405180910390a3610521565b604051806040016040528060068152602001651393d493505360d21b81525090504283600080516020611f44833981519152836040516105189190611b89565b60405180910390a35b90505b919050565b606060076000838152602001908152602001600020805480602002602001604051908101604052809291908181526020016000905b828210156107665760008481526020908190206040805160a081019091526005850290910180546001600160a01b0316825260018101805492939192918401916105a790611dea565b80601f01602080910402602001604051908101604052809291908181526020018280546105d390611dea565b80156106205780601f106105f557610100808354040283529160200191610620565b820191906000526020600020905b81548152906001019060200180831161060357829003601f168201915b5050505050815260200160028201805461063990611dea565b80601f016020809104026020016040519081016040528092919081815260200182805461066590611dea565b80156106b25780601f10610687576101008083540402835291602001916106b2565b820191906000526020600020905b81548152906001019060200180831161069557829003601f168201915b505050505081526020016003820180546106cb90611dea565b80601f01602080910402602001604051908101604052809291908181526020018280546106f790611dea565b80156107445780601f1061071957610100808354040283529160200191610744565b820191906000526020600020905b81548152906001019060200180831161072757829003601f168201915b505050505081526020016004820154815250508152602001906001019061055e565b505050509050919050565b6000818152600b6020526040902080546060919061078e90611dea565b80601f01602080910402602001604051908101604052809291908181526020018280546107ba90611dea565b80156108075780601f106107dc57610100808354040283529160200191610807565b820191906000526020600020905b8154815290600101906020018083116107ea57829003601f168201915b50505050509050919050565b6040805160a08101825233815260208082018681528284018590526060830186905242608084015260008881526007835293842080546001808201835591865294839020845160059096020180546001600160a01b0319166001600160a01b039096169590951785559051805193948594909361089493850192019061157c565b50604082015180516108b091600284019160209091019061157c565b50606082015180516108cc91600384019160209091019061157c565b5060809190910151600491820155600654604051630e96e43760e01b81526001600160a01b0390911691630e96e4379161090891889101611b89565b600060405180830381600087803b15801561092257600080fd5b505af1158015610936573d6000803e3d6000fd5b50506004805460018101825560009190915283517f8a35acfbc15ff81a39ae7d344fd709f28e8600b4aa8c65c6b64bfe7fe36bd19b600590920291820180546001600160a01b0319166001600160a01b0390921691909117815560208086015180518796509294506109cd937f8a35acfbc15ff81a39ae7d344fd709f28e8600b4aa8c65c6b64bfe7fe36bd19c019291019061157c565b50604082015180516109e991600284019160209091019061157c565b5060608201518051610a0591600384019160209091019061157c565b506080820151816004015550505050505050565b6000610a24836103f6565b9050610a6b836040518060400160405280600981526020016811115312559154915160ba1b81525083604051806060016040528060288152602001611edb60289139610813565b600654604051630e96e43760e01b81526001600160a01b0390911690630e96e43790610a9990600401611be7565b600060405180830381600087803b158015610ab357600080fd5b505af1158015610ac7573d6000803e3d6000fd5b505050506000600283610ada9190611d77565b610ae49084611d97565b6006546040516326757b7360e01b81529192506001600160a01b03169063beabacc89082906326757b7390610b1d908990600401611d1c565b60006040518083038186803b158015610b3557600080fd5b505afa158015610b49573d6000803e3d6000fd5b505050506040513d6000823e601f3d908101601f19168201604052610b7191908101906116ff565b6020015133846040518463ffffffff1660e01b8152600401610b9593929190611a04565b602060405180830381600087803b158015610baf57600080fd5b505af1158015610bc3573d6000803e3d6000fd5b505050506040513d601f19601f82011682018060405250810190610be791906116df565b5050505050565b610c75826040518060400160405280601081526020016f149154555154d5081054141493d5915160821b815250604051806040016040528060068152602001651393d493505360d21b8152506040518060400160405280602081526020017f594f55522052455155455354204953204245494e472050524f4345535345442e815250610813565b6000610c82600283611d77565b6006546040516326757b7360e01b81529192506001600160a01b03169063beabacc89082906326757b7390610cbb908890600401611d1c565b60006040518083038186803b158015610cd357600080fd5b505afa158015610ce7573d6000803e3d6000fd5b505050506040513d6000823e601f3d908101601f19168201604052610d0f91908101906116ff565b6020015133846040518463ffffffff1660e01b8152600401610d3393929190611a04565b602060405180830381600087803b158015610d4d57600080fd5b505af1158015610d61573d6000803e3d6000fd5b505050506040513d601f19601f82011682018060405250810190610d8591906116df565b50600654604051630e96e43760e01b81526001600160a01b0390911690630e96e43790610db490600401611c13565b600060405180830381600087803b158015610dce57600080fd5b505af1158015610de2573d6000803e3d6000fd5b50505050505050565b6000610df6826103f6565b9050610e44826040518060400160405280601081526020016f5348495050494e47205041434b41474560801b81525083604051806060016040528060278152602001611e5460279139610813565b600654604051630e96e43760e01b81526001600160a01b0390911690630e96e437906103c090600401611b9c565b600083815260086020908152604080832080546001818101835591855283852001869055600280548083019091557f405787fa12a823e0f2b7631cc41b3ba8828b3321ca811111fa75cd3aa3bb5ace0186905586845260098352818420805480830182559085529284209092018490556003805492830181559092527fc2575a0e9e593c00f959f8c92f12db2869c3395a3b0502d05e2516446f71f85b0182905551429084907f2c060189c78ff839142eec41c801066c4754b0e31a3280bf585b40d39fc5626690610f479086908690611c66565b60405180910390a360005482101580610f6257506001548110155b15610f91574283600080516020611f44833981519152604051610f8490611cfa565b60405180910390a3610fb7565b4283600080516020611f44833981519152604051610fae90611bc7565b60405180910390a35b505050565b60606004805480602002602001604051908101604052809291908181526020016000905b828210156111e85760008481526020908190206040805160a081019091526005850290910180546001600160a01b03168252600181018054929391929184019161102990611dea565b80601f016020809104026020016040519081016040528092919081815260200182805461105590611dea565b80156110a25780601f10611077576101008083540402835291602001916110a2565b820191906000526020600020905b81548152906001019060200180831161108557829003601f168201915b505050505081526020016002820180546110bb90611dea565b80601f01602080910402602001604051908101604052809291908181526020018280546110e790611dea565b80156111345780601f1061110957610100808354040283529160200191611134565b820191906000526020600020905b81548152906001019060200180831161111757829003601f168201915b5050505050815260200160038201805461114d90611dea565b80601f016020809104026020016040519081016040528092919081815260200182805461117990611dea565b80156111c65780601f1061119b576101008083540402835291602001916111c6565b820191906000526020600020905b8154815290600101906020018083116111a957829003601f168201915b5050505050815260200160048201548152505081526020019060010190610fe0565b50505050905090565b600580546001600160a01b03199081166001600160a01b03938416179182905560068054929093169116179055565b600061122b826103f6565b905061127b8260405180604001604052806012815260200171524541445920464f522044454c495645525960701b81525083604051806080016040528060418152602001611f0360419139610813565b600654604051630e96e43760e01b81526001600160a01b0390911690630e96e437906103c090600401611c99565b60408051808201825283815260208082018490526000868152600a825292832080546001810182559084529281902082518051939485946002909102909201926112f89284929091019061157c565b506020828101518051610de2926001850192019061157c565b6060600a6000838152602001908152602001600020805480602002602001604051908101604052809291908181526020016000905b82821015610766578382906000526020600020906002020160405180604001604052908160008201805461137990611dea565b80601f01602080910402602001604051908101604052809291908181526020018280546113a590611dea565b80156113f25780601f106113c7576101008083540402835291602001916113f2565b820191906000526020600020905b8154815290600101906020018083116113d557829003601f168201915b5050505050815260200160018201805461140b90611dea565b80601f016020809104026020016040519081016040528092919081815260200182805461143790611dea565b80156114845780601f1061145957610100808354040283529160200191611484565b820191906000526020600020905b81548152906001019060200180831161146757829003601f168201915b50505050508152505081526020019060010190611346565b600081815260086020908152604080832060098352928190208354825181850281018501909352808352606094859490939184918301828280156114ff57602002820191906000526020600020905b8154815260200190600101908083116114eb575b505050505091508080548060200260200160405190810160405280929190818152602001828054801561155157602002820191906000526020600020905b81548152602001906001019080831161153d575b5050505050905091509150915091565b6000828152600b602090815260409091208251610fb7928401905b82805461158890611dea565b90600052602060002090601f0160209004810192826115aa57600085556115f0565b82601f106115c357805160ff19168380011785556115f0565b828001600101855582156115f0579182015b828111156115f05782518255916020019190600101906115d5565b506115fc929150611600565b5090565b5b808211156115fc5760008155600101611601565b805161052481611e3b565b600082601f830112611630578081fd5b813561164361163e82611d4f565b611d25565b818152846020838601011115611657578283fd5b816020850160208301379081016020019190915292915050565b600082601f830112611681578081fd5b815161168f61163e82611d4f565b8181528460208386010111156116a3578283fd5b6116b4826020830160208701611dba565b949350505050565b6000602082840312156116cd578081fd5b81356116d881611e3b565b9392505050565b6000602082840312156116f0578081fd5b815180151581146116d8578182fd5b600060208284031215611710578081fd5b815167ffffffffffffffff80821115611727578283fd5b9083019060e0828603121561173a578283fd5b61174460e0611d25565b8251815261175460208401611615565b602082015261176560408401611615565b604082015260608301518281111561177b578485fd5b61178787828601611671565b60608301525060808301518281111561179e578485fd5b6117aa87828601611671565b60808301525060a0830151828111156117c1578485fd5b6117cd87828601611671565b60a08301525060c083015160c082015280935050505092915050565b6000602082840312156117fa578081fd5b5035919050565b60008060408385031215611813578081fd5b82359150602083013567ffffffffffffffff811115611830578182fd5b61183c85828601611620565b9150509250929050565b60008060006060848603121561185a578081fd5b83359250602084013567ffffffffffffffff80821115611878578283fd5b61188487838801611620565b93506040860135915080821115611899578283fd5b506118a686828701611620565b9150509250925092565b600080600080608085870312156118c5578081fd5b84359350602085013567ffffffffffffffff808211156118e3578283fd5b6118ef88838901611620565b94506040870135915080821115611904578283fd5b61191088838901611620565b93506060870135915080821115611925578283fd5b5061193287828801611620565b91505092959194509250565b60008060408385031215611950578182fd5b50508035926020909101359150565b600080600060608486031215611973578283fd5b505081359360208301359350604090920135919050565b6000815180845260208085019450808401835b838110156119b95781518752958201959082019060010161199d565b509495945050505050565b600081518084526119dc816020860160208601611dba565b601f01601f19169290920160200192915050565b6001600160a01b0391909116815260200190565b6001600160a01b039384168152919092166020820152604081019190915260600190565b60208082528251828201819052600091906040908185019080840286018301878501865b83811015611a9c57888303603f1901855281518051878552611a70888601826119c4565b91890151858303868b0152919050611a8881836119c4565b968901969450505090860190600101611a4c565b509098975050505050505050565b60208082528251828201819052600091906040908185019080840286018301878501865b83811015611a9c57888303603f19018552815180516001600160a01b031684528781015160a089860181905290611b07828701826119c4565b9150508782015185820389870152611b1f82826119c4565b91505060608083015186830382880152611b3983826119c4565b6080948501519790940196909652505094870194925090860190600101611ace565b600060408252611b6e604083018561198a565b8281036020840152611b80818561198a565b95945050505050565b6000602082526116d860208301846119c4565b60208082526011908201527012538811d313d09053081514905394d255607a1b604082015260600190565b6020808252600690820152651393d493505360d21b604082015260600190565b60208082526012908201527114d21254135153950811115312559154915160721b604082015260600190565b60208082526010908201526f149154555154d5081054141493d5915160821b604082015260600190565b6020808252600f908201526e141050d2d051d14810d49150551151608a1b604082015260600190565b6060808252600c908201526b53656e736f7273204461746160a01b60808201526020810192909252604082015260a00190565b60208082526010908201526f1253881313d0d053081514905394d25560821b604082015260600190565b6020808252601b908201527f5041434b414745204953204f555420464f52205348495050494e470000000000604082015260600190565b60208082526008908201526710509393d493505360c21b604082015260600190565b90815260200190565b60405181810167ffffffffffffffff81118282101715611d4757611d47611e25565b604052919050565b600067ffffffffffffffff821115611d6957611d69611e25565b50601f01601f191660200190565b600082611d9257634e487b7160e01b81526012600452602481fd5b500490565b600082821015611db557634e487b7160e01b81526011600452602481fd5b500390565b60005b83811015611dd5578181015183820152602001611dbd565b83811115611de4576000848401525b50505050565b600281046001821680611dfe57607f821691505b60208210811415611e1f57634e487b7160e01b600052602260045260246000fd5b50919050565b634e487b7160e01b600052604160045260246000fd5b6001600160a01b0381168114611e5057600080fd5b5056fe20594f555220534849504d454e542049532043555252454e544c5920494e205452414e5349542e20594f555220534849504d454e54204953204f555420464f52205348495050494e475041434b414745204953204352454154454420414e4420534849504d454e5420495320524541445920544f204c4541564520464f522053485050494e472e594f555220534849504d454e542049532044454c495645524544205355434345535346554c4c592e594f555220534849504d454e542049532053455420464f522044454c495645525920414e4420495320455850454354454420544f2041525249564520534f4f4e2ea5c6f15554bc8ce0c037ba8151c192afe39c97efe0dee46b4b19f486e3a6d3bda26469706673582212207a4fe9dd25362e0cec8d3e293ca805c3f0c6a91153751d0388e5d19720e4b60964736f6c63430008000033",
  "immutableReferences": {},
  "source": "// \"SPDX-License-Identifier: UNLICENSED\"\n\npragma solidity >=0.6.2;\npragma experimental ABIEncoderV2;  \nimport './PharmaChain.sol';\n\ncontract PharmaChainTracking {\n    \n    \n    uint        tempThreshold = 40;\n    uint        humidityThreshold = 50;\n    uint[]      tempArr;\n    uint[]      humidArr;\n    Log[]       logsArr;\n    address     pcContract;\n    PharmaChain pc;\n    mapping (uint => Log[])                 trackLogs; //requestId and Log\n    mapping (uint => uint[])                tempDataLogs; // requestId and temp data\n    mapping (uint => uint[])                humidDataLogs; // requestId and humid data\n    mapping (uint => Location[])            requestLocations; //request id and locations\n    mapping (uint => string)                requestShipmentMethod; //request Id and shipment method  \n    event   DataSent            (uint indexed requestNo, string DataCategory ,uint tempValues , uint HumidValues , uint indexed timestamp);\n    event   ShipmentStateUpdate (uint indexed requestNo, string  state, uint indexed timestamp);\n    \n     struct Product {\n        \n        address manufacturer;\n        string  productId; //registration no.\n        string  productName;\n        string  productForm; // tablets or capsules\n        uint    productBudget;\n        \n    }\n    \n    struct Location {\n        string Latitude;\n        string Longitude;\n    }\n    struct Log {\n        address logger;\n        string  requestStatus;\n        string  description;\n        string  shipmentStatus;\n        uint    logTime;\n    }\n    \n  \n  function returnContractAddress() public view returns (address) {\n        return address(this);\n    }\n    \n    \n    function setContract(address _contract) public {\n        pcContract = _contract;\n        pc = PharmaChain(pcContract);\n    }\n    \n    \n     // TRACKING STUFF GOES HERE\n    // TRACKING STEPS:\n    // 1- REQUEST IS CREATED\n    // 2- SUPPLIER APPROVE REQUEST AND ASSIGNS SHIPMENT LOCATION \n    // 3- SUPPLIER CREATE AND SEND SHIPMENT FOR GLOBAL TRANSMISSION\n    // 4- GLOBAL TRANSMISSION SHIPS PACKAGE FOR LOCAL TRANSMISSION\n    // 5- LOCAL TRANSMISSION SHIPS PACKAGE TO FINAL DESTINATION (MANUFACTURER)\n    // TEMP AND HUMIDITY READINGS ARE SET DURING ALL PHASES OF SHIPMENT TRANSMISSION.\n    \n\n    //supplier\n    function approveRequest(uint _requestId, uint _totalPayment) public {\n        createLog(_requestId, 'REQUEST APPROVED', 'NORMAL' , 'YOUR REQUEST IS BEING PROCESSED.' );\n        \n        // uint payment = pc.getRequestCost(_requestId)/2;\n        uint payment = _totalPayment/2;\n        pc.transfer(pc.getRequestById(_requestId).fromParti, msg.sender, payment);\n        pc.emitRequestStateEvent('REQUEST APPROVED');\n    }\n    \n \n    function verifyShipmentState(uint _id) public returns (string memory) {\n        \n        string memory status;\n        \n        if(tempArr[tempArr.length-1] >= tempThreshold || humidArr[humidArr.length-1] >= humidityThreshold) {\n            \n            status = 'ABNORMAL';\n             emit ShipmentStateUpdate (_id, status , block.timestamp);\n            \n        } else {\n            \n            status = 'NORMAL';\n             emit ShipmentStateUpdate (_id, status , block.timestamp);\n        }\n          return status;\n    }\n    \n \n    // // supplier \n    function sendShipment(uint _requestId) public {\n        // string memory x = pc.getInventoryItemById(pc.getRequestById(_requestId).materialID).itemId;\n        // string memory y = pc.getRequestById(_requestId).materialID;\n        // uint newAmount = pc.getInventoryItemById(pc.getRequestById(_requestId).materialID).amount - pc.getRequestById(_requestId).amount;\n\n        string memory result = verifyShipmentState(_requestId);\n    \n        createLog(_requestId, 'PACKAGE CREATED',  result , 'PACKAGE IS CREATED AND SHIPMENT IS READY TO LEAVE FOR SHPPING.' );\n        // emit pc.requestStateUpdate(msg.sender, block.timestamp , 'PACKAGE CREATED');\n        pc.emitRequestStateEvent('PACKAGE CREATED');\n        \n        createLog (_requestId, 'OUT FOR SHIPPING', result , ' YOUR SHIPMENT IS OUT FOR SHIPPING'); \n        // emit pc.requestStateUpdate(msg.sender, block.timestamp , 'PACKAGE IS OUT FOR SHIPPING');\n        pc.emitRequestStateEvent('PACKAGE IS OUT FOR SHIPPING');\n        \n        // if(pc.strComp(x,y)) {\n        //     pc.updateInventory(msg.sender,pc.getRequestById(_requestId).materialID, newAmount);\n        // }\n        \n    }\n    \n    // // global distributor\n    function globalTransitShipment(uint _requestId) public {\n        \n        string memory result = verifyShipmentState(_requestId);\n        \n        createLog (_requestId, 'SHIPPING PACKAGE', result , ' YOUR SHIPMENT IS CURRENTLY IN TRANSIT.');\n        // emit pc.requestStateUpdate(msg.sender, block.timestamp , 'IN GLOBAL TRANSIT');\n        pc.emitRequestStateEvent('IN GLOBAL TRANSIT');\n        \n    }\n    \n    // //local distributor\n    function localTransitShipment(uint _requestId) public {\n        \n         string memory result = verifyShipmentState(_requestId);\n         \n        createLog (_requestId, 'READY FOR DELIVERY', result , 'YOUR SHIPMENT IS SET FOR DELIVERY AND IS EXPECTED TO ARRIVE SOON.');\n        // emit pc.requestStateUpdate(msg.sender, block.timestamp , 'IN LOCAL TRANSIT');\n        pc.emitRequestStateEvent('IN LOCAL TRANSIT');\n        \n    }\n     \n    // //manufacturer\n    \n    function receiveShipment(uint _requestId, uint _totalPayment) public {\n        // string memory x = pc.getInventory(msg.sender)[0].itemId;\n        // string memory y = pc.getRequestById(_requestId).materialID;\n        // uint newAmount = pc.getInventoryItemById(pc.getRequestById(_requestId).materialID).amount + pc.getRequestById(_requestId).amount;\n        \n        string memory result = verifyShipmentState(_requestId);\n        createLog(_requestId, 'DELIVERED' , result , 'YOUR SHIPMENT IS DELIVERED SUCCESSFULLY.');\n        pc.emitRequestStateEvent('SHIPMENT DELIVERED');\n        \n        // uint payment = pc.getRequestCost(_requestId) - pc.getRequestCost(_requestId)/2;\n        uint payment = _totalPayment - _totalPayment/2;\n        pc.transfer(pc.getRequestById(_requestId).fromParti, msg.sender, payment);\n        \n       \n        // if(pc.strComp(x,y)) {\n        //     pc.updateInventory(msg.sender,pc.getRequestById(_requestId).materialID, newAmount);\n        // } else {\n        //     pc.addToInventory(msg.sender,pc.getRequestById(_requestId).materialID, newAmount);\n        // }\n    }\n    \n    \n    function createLog(\n    uint _requestId,\n    string memory _requestStatus,\n    string memory _shipmentStatus,\n    string memory _description\n    \n    ) public  {\n        \n        Log memory myLog = Log({\n            logger: msg.sender,\n            requestStatus: _requestStatus,\n            shipmentStatus: _shipmentStatus,\n            description: _description,\n            logTime: block.timestamp\n        });\n        \n        trackLogs[_requestId].push(myLog);\n        // emit pc.requestStateUpdate(msg.sender, block.timestamp , _requestStatus);\n        pc.emitRequestStateEvent(_requestStatus);\n        logsArr.push(myLog);\n     }\n    \n    function setShipmentTrackData (uint _id, uint _temp , uint _humid) public {\n        \n        tempDataLogs[_id].push(_temp);\n        tempArr.push(_temp);\n        humidDataLogs[_id].push(_humid);\n        humidArr.push(_humid);\n        emit DataSent(_id ,'Sensors Data', _temp, _humid , block.timestamp);\n        if(_temp >= tempThreshold || _humid >= humidityThreshold) {\n            emit ShipmentStateUpdate (_id, 'ABNORMAL' , block.timestamp);\n        } else {\n             emit ShipmentStateUpdate (_id, 'NORMAL' , block.timestamp);\n        }\n    }\n    \n    function getShipmentTrackData (uint _id) public view returns (uint[] memory temp, uint[] memory humid) {\n        return (tempDataLogs[_id],humidDataLogs[_id]);\n        \n    }\n    \n    function getTrackLogs(uint _request) public view returns(Log[] memory) {\n        return trackLogs[_request];\n    }\n    \n    function getAllTrack() public view returns(Log[] memory) {\n        return logsArr;\n    }\n    \n    \n    function setShipmentLocation (uint _id, string memory _lat , string memory _long) public {\n        Location memory loc = Location({\n            Latitude: _lat,\n            Longitude: _long\n        });\n        \n        requestLocations[_id].push(loc);\n    }\n    \n    function getShipmentLocation (uint _id) public view returns (Location[] memory) {\n        return requestLocations[_id];\n    }\n    \n    function setShipmentMethod(uint _id , string memory _method) public {\n        requestShipmentMethod[_id] = _method;\n    }\n    \n    function getShipmentMethod(uint _id) public view returns (string memory) {\n        return requestShipmentMethod[_id];\n    }\n    \n    // END OF TRACKING STUFF\n// END OF CONTRACT\n}",
  "sourcePath": "/Users/mohamedkaram/Documents/Projects/PharmaChain/contracts/PharmaChainTracking.sol",
  "compiler": {
    "name": "solc",
    "version": "0.8.0+commit.c7dfd78e.Emscripten.clang"
  },
  "schemaVersion": "3.4.2",
  "updatedAt": "2021-08-02T21:10:29.022Z",
  "networkType": "ethereum",
  "devdoc": {
    "kind": "dev",
    "methods": {},
    "version": 1
  },
  "userdoc": {
    "kind": "user",
    "methods": {},
    "version": 1
  }
}