{
  "contractName": "PharmaChain",
  "abi": [
    {
      "anonymous": false,
      "inputs": [
        {
          "indexed": false,
          "internalType": "string",
          "name": "txName",
          "type": "string"
        },
        {
          "indexed": true,
          "internalType": "address",
          "name": "_from",
          "type": "address"
        },
        {
          "indexed": false,
          "internalType": "address",
          "name": "_to",
          "type": "address"
        },
        {
          "indexed": false,
          "internalType": "uint256",
          "name": "_amount",
          "type": "uint256"
        },
        {
          "indexed": true,
          "internalType": "uint256",
          "name": "timestamp",
          "type": "uint256"
        }
      ],
      "name": "BankTransact",
      "type": "event"
    },
    {
      "anonymous": false,
      "inputs": [
        {
          "indexed": true,
          "internalType": "address",
          "name": "who",
          "type": "address"
        },
        {
          "indexed": true,
          "internalType": "uint256",
          "name": "timestamp",
          "type": "uint256"
        },
        {
          "indexed": false,
          "internalType": "string",
          "name": "state",
          "type": "string"
        }
      ],
      "name": "requestStateUpdate",
      "type": "event"
    },
    {
      "inputs": [
        {
          "internalType": "string",
          "name": "x",
          "type": "string"
        },
        {
          "internalType": "string",
          "name": "y",
          "type": "string"
        }
      ],
      "name": "strComp",
      "outputs": [
        {
          "internalType": "bool",
          "name": "",
          "type": "bool"
        }
      ],
      "stateMutability": "pure",
      "type": "function",
      "constant": true
    },
    {
      "inputs": [],
      "name": "returnContractAddress",
      "outputs": [
        {
          "internalType": "address",
          "name": "",
          "type": "address"
        }
      ],
      "stateMutability": "view",
      "type": "function",
      "constant": true
    },
    {
      "inputs": [
        {
          "internalType": "address",
          "name": "_participant",
          "type": "address"
        }
      ],
      "name": "addToTrusted",
      "outputs": [],
      "stateMutability": "nonpayable",
      "type": "function"
    },
    {
      "inputs": [
        {
          "internalType": "address",
          "name": "_participant",
          "type": "address"
        }
      ],
      "name": "removeFromTrusted",
      "outputs": [],
      "stateMutability": "nonpayable",
      "type": "function"
    },
    {
      "inputs": [
        {
          "internalType": "address",
          "name": "_participant",
          "type": "address"
        }
      ],
      "name": "isTrusted",
      "outputs": [
        {
          "internalType": "bool",
          "name": "",
          "type": "bool"
        }
      ],
      "stateMutability": "view",
      "type": "function",
      "constant": true
    },
    {
      "inputs": [
        {
          "internalType": "address",
          "name": "_truster",
          "type": "address"
        },
        {
          "internalType": "address",
          "name": "_trustee",
          "type": "address"
        }
      ],
      "name": "checkIfTrusted",
      "outputs": [
        {
          "internalType": "bool",
          "name": "",
          "type": "bool"
        }
      ],
      "stateMutability": "view",
      "type": "function",
      "constant": true
    },
    {
      "inputs": [
        {
          "internalType": "string",
          "name": "_state",
          "type": "string"
        }
      ],
      "name": "emitRequestStateEvent",
      "outputs": [],
      "stateMutability": "nonpayable",
      "type": "function"
    },
    {
      "inputs": [
        {
          "internalType": "string",
          "name": "_id",
          "type": "string"
        },
        {
          "internalType": "string",
          "name": "_name",
          "type": "string"
        },
        {
          "internalType": "string",
          "name": "_pForm",
          "type": "string"
        }
      ],
      "name": "addProduct",
      "outputs": [],
      "stateMutability": "nonpayable",
      "type": "function"
    },
    {
      "inputs": [
        {
          "internalType": "string",
          "name": "_productID",
          "type": "string"
        },
        {
          "internalType": "string",
          "name": "_name",
          "type": "string"
        },
        {
          "internalType": "string",
          "name": "_type",
          "type": "string"
        },
        {
          "internalType": "string",
          "name": "_strength",
          "type": "string"
        },
        {
          "internalType": "string",
          "name": "_form",
          "type": "string"
        },
        {
          "internalType": "string",
          "name": "_amount",
          "type": "string"
        },
        {
          "internalType": "string",
          "name": "_unitCost",
          "type": "string"
        }
      ],
      "name": "addProductSpecs",
      "outputs": [],
      "stateMutability": "nonpayable",
      "type": "function"
    },
    {
      "inputs": [
        {
          "internalType": "address",
          "name": "_manufacturer",
          "type": "address"
        }
      ],
      "name": "getProductsByManu",
      "outputs": [
        {
          "components": [
            {
              "internalType": "address",
              "name": "manufacturer",
              "type": "address"
            },
            {
              "internalType": "string",
              "name": "productId",
              "type": "string"
            },
            {
              "internalType": "string",
              "name": "productName",
              "type": "string"
            },
            {
              "internalType": "string",
              "name": "productForm",
              "type": "string"
            }
          ],
          "internalType": "struct PharmaChain.Product[]",
          "name": "",
          "type": "tuple[]"
        }
      ],
      "stateMutability": "view",
      "type": "function",
      "constant": true
    },
    {
      "inputs": [],
      "name": "getProducts",
      "outputs": [
        {
          "components": [
            {
              "internalType": "address",
              "name": "manufacturer",
              "type": "address"
            },
            {
              "internalType": "string",
              "name": "productId",
              "type": "string"
            },
            {
              "internalType": "string",
              "name": "productName",
              "type": "string"
            },
            {
              "internalType": "string",
              "name": "productForm",
              "type": "string"
            }
          ],
          "internalType": "struct PharmaChain.Product[]",
          "name": "",
          "type": "tuple[]"
        }
      ],
      "stateMutability": "view",
      "type": "function",
      "constant": true
    },
    {
      "inputs": [
        {
          "internalType": "string",
          "name": "_id",
          "type": "string"
        }
      ],
      "name": "getProductById",
      "outputs": [
        {
          "components": [
            {
              "internalType": "address",
              "name": "manufacturer",
              "type": "address"
            },
            {
              "internalType": "string",
              "name": "productId",
              "type": "string"
            },
            {
              "internalType": "string",
              "name": "productName",
              "type": "string"
            },
            {
              "internalType": "string",
              "name": "productForm",
              "type": "string"
            }
          ],
          "internalType": "struct PharmaChain.Product",
          "name": "",
          "type": "tuple"
        }
      ],
      "stateMutability": "view",
      "type": "function",
      "constant": true
    },
    {
      "inputs": [
        {
          "internalType": "string",
          "name": "_product",
          "type": "string"
        }
      ],
      "name": "getProductSpecs",
      "outputs": [
        {
          "components": [
            {
              "internalType": "string",
              "name": "materialName",
              "type": "string"
            },
            {
              "internalType": "string",
              "name": "materialType",
              "type": "string"
            },
            {
              "internalType": "string",
              "name": "materialAmount",
              "type": "string"
            },
            {
              "internalType": "string",
              "name": "materialStrength",
              "type": "string"
            },
            {
              "internalType": "string",
              "name": "materialForm",
              "type": "string"
            },
            {
              "internalType": "string",
              "name": "materialUnitCost",
              "type": "string"
            }
          ],
          "internalType": "struct PharmaChain.Specs[]",
          "name": "",
          "type": "tuple[]"
        }
      ],
      "stateMutability": "view",
      "type": "function",
      "constant": true
    },
    {
      "inputs": [
        {
          "internalType": "string",
          "name": "_product",
          "type": "string"
        },
        {
          "internalType": "string",
          "name": "_phase",
          "type": "string"
        }
      ],
      "name": "setProductPhase",
      "outputs": [],
      "stateMutability": "nonpayable",
      "type": "function"
    },
    {
      "inputs": [
        {
          "internalType": "string",
          "name": "_product",
          "type": "string"
        }
      ],
      "name": "getProductPhase",
      "outputs": [
        {
          "internalType": "string[]",
          "name": "phases",
          "type": "string[]"
        }
      ],
      "stateMutability": "view",
      "type": "function",
      "constant": true
    },
    {
      "inputs": [
        {
          "internalType": "string",
          "name": "_product",
          "type": "string"
        },
        {
          "internalType": "uint256",
          "name": "_unitsNo",
          "type": "uint256"
        },
        {
          "components": [
            {
              "internalType": "string",
              "name": "directMaterialCost",
              "type": "string"
            },
            {
              "internalType": "string",
              "name": "packagingMaterialCost",
              "type": "string"
            },
            {
              "internalType": "string",
              "name": "directLaborCost",
              "type": "string"
            },
            {
              "internalType": "string",
              "name": "totalDirectCost",
              "type": "string"
            },
            {
              "internalType": "string",
              "name": "CostTOT",
              "type": "string"
            }
          ],
          "internalType": "struct PharmaChain.Cost",
          "name": "stdCosts",
          "type": "tuple"
        }
      ],
      "name": "setStdCostPlan",
      "outputs": [],
      "stateMutability": "nonpayable",
      "type": "function"
    },
    {
      "inputs": [
        {
          "internalType": "string",
          "name": "_product",
          "type": "string"
        }
      ],
      "name": "setStdMaterialQty",
      "outputs": [],
      "stateMutability": "nonpayable",
      "type": "function"
    },
    {
      "inputs": [
        {
          "internalType": "string",
          "name": "_product",
          "type": "string"
        }
      ],
      "name": "getStdCostPlan",
      "outputs": [
        {
          "components": [
            {
              "internalType": "string",
              "name": "directMaterialCost",
              "type": "string"
            },
            {
              "internalType": "string",
              "name": "packagingMaterialCost",
              "type": "string"
            },
            {
              "internalType": "string",
              "name": "directLaborCost",
              "type": "string"
            },
            {
              "internalType": "string",
              "name": "totalDirectCost",
              "type": "string"
            },
            {
              "internalType": "string",
              "name": "CostTOT",
              "type": "string"
            }
          ],
          "internalType": "struct PharmaChain.Cost",
          "name": "",
          "type": "tuple"
        }
      ],
      "stateMutability": "view",
      "type": "function",
      "constant": true
    },
    {
      "inputs": [
        {
          "internalType": "string",
          "name": "_product",
          "type": "string"
        }
      ],
      "name": "getStdBudgetUnits",
      "outputs": [
        {
          "internalType": "uint256",
          "name": "units",
          "type": "uint256"
        }
      ],
      "stateMutability": "view",
      "type": "function",
      "constant": true
    },
    {
      "inputs": [
        {
          "internalType": "string",
          "name": "_product",
          "type": "string"
        }
      ],
      "name": "getStdMaterialQty",
      "outputs": [
        {
          "internalType": "string",
          "name": "",
          "type": "string"
        }
      ],
      "stateMutability": "view",
      "type": "function",
      "constant": true
    },
    {
      "inputs": [
        {
          "internalType": "string",
          "name": "_product",
          "type": "string"
        },
        {
          "internalType": "uint256",
          "name": "_unitsNo",
          "type": "uint256"
        },
        {
          "internalType": "string",
          "name": "_actualMatQty",
          "type": "string"
        },
        {
          "components": [
            {
              "internalType": "string",
              "name": "directMaterialCost",
              "type": "string"
            },
            {
              "internalType": "string",
              "name": "packagingMaterialCost",
              "type": "string"
            },
            {
              "internalType": "string",
              "name": "directLaborCost",
              "type": "string"
            },
            {
              "internalType": "string",
              "name": "totalDirectCost",
              "type": "string"
            },
            {
              "internalType": "string",
              "name": "CostTOT",
              "type": "string"
            }
          ],
          "internalType": "struct PharmaChain.Cost",
          "name": "actualCosts",
          "type": "tuple"
        }
      ],
      "name": "setActualCost",
      "outputs": [],
      "stateMutability": "nonpayable",
      "type": "function"
    },
    {
      "inputs": [
        {
          "internalType": "string",
          "name": "_product",
          "type": "string"
        }
      ],
      "name": "getActualCost",
      "outputs": [
        {
          "components": [
            {
              "internalType": "string",
              "name": "directMaterialCost",
              "type": "string"
            },
            {
              "internalType": "string",
              "name": "packagingMaterialCost",
              "type": "string"
            },
            {
              "internalType": "string",
              "name": "directLaborCost",
              "type": "string"
            },
            {
              "internalType": "string",
              "name": "totalDirectCost",
              "type": "string"
            },
            {
              "internalType": "string",
              "name": "CostTOT",
              "type": "string"
            }
          ],
          "internalType": "struct PharmaChain.Cost",
          "name": "",
          "type": "tuple"
        }
      ],
      "stateMutability": "view",
      "type": "function",
      "constant": true
    },
    {
      "inputs": [
        {
          "internalType": "string",
          "name": "_product",
          "type": "string"
        },
        {
          "internalType": "string",
          "name": "_amount",
          "type": "string"
        }
      ],
      "name": "setActualMaterialQty",
      "outputs": [],
      "stateMutability": "nonpayable",
      "type": "function"
    },
    {
      "inputs": [
        {
          "internalType": "string",
          "name": "_product",
          "type": "string"
        }
      ],
      "name": "getActualMaterialQty",
      "outputs": [
        {
          "internalType": "string",
          "name": "",
          "type": "string"
        }
      ],
      "stateMutability": "view",
      "type": "function",
      "constant": true
    },
    {
      "inputs": [
        {
          "internalType": "string",
          "name": "_product",
          "type": "string"
        }
      ],
      "name": "getActualBudgetUnits",
      "outputs": [
        {
          "internalType": "uint256",
          "name": "units",
          "type": "uint256"
        }
      ],
      "stateMutability": "view",
      "type": "function",
      "constant": true
    },
    {
      "inputs": [
        {
          "internalType": "string",
          "name": "_product",
          "type": "string"
        },
        {
          "internalType": "uint256",
          "name": "_unitsNo",
          "type": "uint256"
        },
        {
          "components": [
            {
              "internalType": "string",
              "name": "directMaterialCost",
              "type": "string"
            },
            {
              "internalType": "string",
              "name": "packagingMaterialCost",
              "type": "string"
            },
            {
              "internalType": "string",
              "name": "directLaborCost",
              "type": "string"
            },
            {
              "internalType": "string",
              "name": "totalDirectCost",
              "type": "string"
            },
            {
              "internalType": "string",
              "name": "CostTOT",
              "type": "string"
            }
          ],
          "internalType": "struct PharmaChain.Cost",
          "name": "flex",
          "type": "tuple"
        }
      ],
      "name": "setFlexibleCosts",
      "outputs": [],
      "stateMutability": "nonpayable",
      "type": "function"
    },
    {
      "inputs": [
        {
          "internalType": "string",
          "name": "_product",
          "type": "string"
        }
      ],
      "name": "getFlexibleCosts",
      "outputs": [
        {
          "components": [
            {
              "internalType": "string",
              "name": "directMaterialCost",
              "type": "string"
            },
            {
              "internalType": "string",
              "name": "packagingMaterialCost",
              "type": "string"
            },
            {
              "internalType": "string",
              "name": "directLaborCost",
              "type": "string"
            },
            {
              "internalType": "string",
              "name": "totalDirectCost",
              "type": "string"
            },
            {
              "internalType": "string",
              "name": "CostTOT",
              "type": "string"
            }
          ],
          "internalType": "struct PharmaChain.Cost",
          "name": "",
          "type": "tuple"
        }
      ],
      "stateMutability": "view",
      "type": "function",
      "constant": true
    },
    {
      "inputs": [
        {
          "internalType": "string",
          "name": "_product",
          "type": "string"
        }
      ],
      "name": "getFlexibleBudgetUnits",
      "outputs": [
        {
          "internalType": "uint256",
          "name": "units",
          "type": "uint256"
        }
      ],
      "stateMutability": "view",
      "type": "function",
      "constant": true
    },
    {
      "inputs": [
        {
          "internalType": "string",
          "name": "_id",
          "type": "string"
        },
        {
          "internalType": "string",
          "name": "_name",
          "type": "string"
        },
        {
          "internalType": "uint256",
          "name": "_str",
          "type": "uint256"
        },
        {
          "internalType": "string",
          "name": "_form",
          "type": "string"
        },
        {
          "internalType": "string",
          "name": "_amount",
          "type": "string"
        },
        {
          "internalType": "string",
          "name": "_unitCost",
          "type": "string"
        },
        {
          "internalType": "string",
          "name": "_storageConditions",
          "type": "string"
        },
        {
          "internalType": "bool",
          "name": "_stability",
          "type": "bool"
        },
        {
          "internalType": "uint256",
          "name": "_stabilityPeriod",
          "type": "uint256"
        }
      ],
      "name": "createMaterial",
      "outputs": [],
      "stateMutability": "nonpayable",
      "type": "function"
    },
    {
      "inputs": [
        {
          "internalType": "string",
          "name": "_materialID",
          "type": "string"
        },
        {
          "components": [
            {
              "internalType": "string",
              "name": "directMaterialCost",
              "type": "string"
            },
            {
              "internalType": "string",
              "name": "packagingMaterialCost",
              "type": "string"
            },
            {
              "internalType": "string",
              "name": "directLaborCost",
              "type": "string"
            },
            {
              "internalType": "string",
              "name": "shippingCost",
              "type": "string"
            },
            {
              "internalType": "string",
              "name": "totalDirectCost",
              "type": "string"
            },
            {
              "internalType": "string",
              "name": "CostTOT",
              "type": "string"
            }
          ],
          "internalType": "struct PharmaChain.MaterialProductionCost",
          "name": "matCost",
          "type": "tuple"
        }
      ],
      "name": "setMaterialCostPlan",
      "outputs": [],
      "stateMutability": "nonpayable",
      "type": "function"
    },
    {
      "inputs": [
        {
          "internalType": "string",
          "name": "_material",
          "type": "string"
        }
      ],
      "name": "getMaterialCostPlan",
      "outputs": [
        {
          "components": [
            {
              "internalType": "string",
              "name": "directMaterialCost",
              "type": "string"
            },
            {
              "internalType": "string",
              "name": "packagingMaterialCost",
              "type": "string"
            },
            {
              "internalType": "string",
              "name": "directLaborCost",
              "type": "string"
            },
            {
              "internalType": "string",
              "name": "shippingCost",
              "type": "string"
            },
            {
              "internalType": "string",
              "name": "totalDirectCost",
              "type": "string"
            },
            {
              "internalType": "string",
              "name": "CostTOT",
              "type": "string"
            }
          ],
          "internalType": "struct PharmaChain.MaterialProductionCost",
          "name": "",
          "type": "tuple"
        }
      ],
      "stateMutability": "view",
      "type": "function",
      "constant": true
    },
    {
      "inputs": [
        {
          "internalType": "address",
          "name": "_supplier",
          "type": "address"
        }
      ],
      "name": "getMaterialsBySupplier",
      "outputs": [
        {
          "components": [
            {
              "internalType": "address",
              "name": "supplier",
              "type": "address"
            },
            {
              "internalType": "string",
              "name": "materialID",
              "type": "string"
            },
            {
              "internalType": "string",
              "name": "materialName",
              "type": "string"
            },
            {
              "internalType": "uint256",
              "name": "materialStrength",
              "type": "uint256"
            },
            {
              "internalType": "string",
              "name": "materialForm",
              "type": "string"
            },
            {
              "internalType": "string",
              "name": "createdAmount",
              "type": "string"
            },
            {
              "internalType": "string",
              "name": "unitCost",
              "type": "string"
            },
            {
              "internalType": "string",
              "name": "storageConditions",
              "type": "string"
            },
            {
              "internalType": "bool",
              "name": "materialStability",
              "type": "bool"
            },
            {
              "internalType": "uint256",
              "name": "materialManuDate",
              "type": "uint256"
            },
            {
              "internalType": "uint256",
              "name": "materialStabilityPeriod",
              "type": "uint256"
            }
          ],
          "internalType": "struct PharmaChain.Material[]",
          "name": "",
          "type": "tuple[]"
        }
      ],
      "stateMutability": "view",
      "type": "function",
      "constant": true
    },
    {
      "inputs": [],
      "name": "getMaterials",
      "outputs": [
        {
          "components": [
            {
              "internalType": "address",
              "name": "supplier",
              "type": "address"
            },
            {
              "internalType": "string",
              "name": "materialID",
              "type": "string"
            },
            {
              "internalType": "string",
              "name": "materialName",
              "type": "string"
            },
            {
              "internalType": "uint256",
              "name": "materialStrength",
              "type": "uint256"
            },
            {
              "internalType": "string",
              "name": "materialForm",
              "type": "string"
            },
            {
              "internalType": "string",
              "name": "createdAmount",
              "type": "string"
            },
            {
              "internalType": "string",
              "name": "unitCost",
              "type": "string"
            },
            {
              "internalType": "string",
              "name": "storageConditions",
              "type": "string"
            },
            {
              "internalType": "bool",
              "name": "materialStability",
              "type": "bool"
            },
            {
              "internalType": "uint256",
              "name": "materialManuDate",
              "type": "uint256"
            },
            {
              "internalType": "uint256",
              "name": "materialStabilityPeriod",
              "type": "uint256"
            }
          ],
          "internalType": "struct PharmaChain.Material[]",
          "name": "",
          "type": "tuple[]"
        }
      ],
      "stateMutability": "view",
      "type": "function",
      "constant": true
    },
    {
      "inputs": [
        {
          "internalType": "string",
          "name": "_materialId",
          "type": "string"
        }
      ],
      "name": "getMaterialById",
      "outputs": [
        {
          "components": [
            {
              "internalType": "address",
              "name": "supplier",
              "type": "address"
            },
            {
              "internalType": "string",
              "name": "materialID",
              "type": "string"
            },
            {
              "internalType": "string",
              "name": "materialName",
              "type": "string"
            },
            {
              "internalType": "uint256",
              "name": "materialStrength",
              "type": "uint256"
            },
            {
              "internalType": "string",
              "name": "materialForm",
              "type": "string"
            },
            {
              "internalType": "string",
              "name": "createdAmount",
              "type": "string"
            },
            {
              "internalType": "string",
              "name": "unitCost",
              "type": "string"
            },
            {
              "internalType": "string",
              "name": "storageConditions",
              "type": "string"
            },
            {
              "internalType": "bool",
              "name": "materialStability",
              "type": "bool"
            },
            {
              "internalType": "uint256",
              "name": "materialManuDate",
              "type": "uint256"
            },
            {
              "internalType": "uint256",
              "name": "materialStabilityPeriod",
              "type": "uint256"
            }
          ],
          "internalType": "struct PharmaChain.Material",
          "name": "",
          "type": "tuple"
        }
      ],
      "stateMutability": "view",
      "type": "function",
      "constant": true
    },
    {
      "inputs": [
        {
          "internalType": "address",
          "name": "_to",
          "type": "address"
        },
        {
          "internalType": "string",
          "name": "_productId",
          "type": "string"
        },
        {
          "internalType": "string",
          "name": "_materialId",
          "type": "string"
        },
        {
          "internalType": "string",
          "name": "_amount",
          "type": "string"
        },
        {
          "internalType": "string",
          "name": "_requestCost",
          "type": "string"
        }
      ],
      "name": "createRequest",
      "outputs": [],
      "stateMutability": "nonpayable",
      "type": "function"
    },
    {
      "inputs": [
        {
          "internalType": "address",
          "name": "_fromParti2",
          "type": "address"
        },
        {
          "internalType": "address",
          "name": "_to",
          "type": "address"
        },
        {
          "internalType": "string",
          "name": "_materialId",
          "type": "string"
        },
        {
          "internalType": "string",
          "name": "_amount",
          "type": "string"
        },
        {
          "internalType": "string",
          "name": "_requestCost",
          "type": "string"
        }
      ],
      "name": "createBatchRequest",
      "outputs": [],
      "stateMutability": "nonpayable",
      "type": "function"
    },
    {
      "inputs": [
        {
          "internalType": "uint256",
          "name": "_id",
          "type": "uint256"
        }
      ],
      "name": "getRequestCost",
      "outputs": [
        {
          "internalType": "string",
          "name": "",
          "type": "string"
        }
      ],
      "stateMutability": "view",
      "type": "function",
      "constant": true
    },
    {
      "inputs": [
        {
          "internalType": "address",
          "name": "_parti",
          "type": "address"
        }
      ],
      "name": "getMyRequests",
      "outputs": [
        {
          "components": [
            {
              "internalType": "uint256",
              "name": "requestId",
              "type": "uint256"
            },
            {
              "internalType": "address",
              "name": "fromParti",
              "type": "address"
            },
            {
              "internalType": "address",
              "name": "toParti",
              "type": "address"
            },
            {
              "internalType": "string",
              "name": "productID",
              "type": "string"
            },
            {
              "internalType": "string",
              "name": "materialID",
              "type": "string"
            },
            {
              "internalType": "string",
              "name": "amount",
              "type": "string"
            },
            {
              "internalType": "uint256",
              "name": "issueTime",
              "type": "uint256"
            }
          ],
          "internalType": "struct PharmaChain.Request[]",
          "name": "",
          "type": "tuple[]"
        }
      ],
      "stateMutability": "view",
      "type": "function",
      "constant": true
    },
    {
      "inputs": [],
      "name": "getMyBatchRequests",
      "outputs": [
        {
          "components": [
            {
              "internalType": "uint256",
              "name": "requestId",
              "type": "uint256"
            },
            {
              "internalType": "address",
              "name": "fromParti1",
              "type": "address"
            },
            {
              "internalType": "address",
              "name": "fromParti2",
              "type": "address"
            },
            {
              "internalType": "address",
              "name": "toParti",
              "type": "address"
            },
            {
              "internalType": "string",
              "name": "materialID",
              "type": "string"
            },
            {
              "internalType": "string",
              "name": "amount",
              "type": "string"
            },
            {
              "internalType": "uint256",
              "name": "issueTime",
              "type": "uint256"
            }
          ],
          "internalType": "struct PharmaChain.BatchRequest[]",
          "name": "",
          "type": "tuple[]"
        }
      ],
      "stateMutability": "view",
      "type": "function",
      "constant": true
    },
    {
      "inputs": [
        {
          "internalType": "uint256",
          "name": "_id",
          "type": "uint256"
        }
      ],
      "name": "getRequestById",
      "outputs": [
        {
          "components": [
            {
              "internalType": "uint256",
              "name": "requestId",
              "type": "uint256"
            },
            {
              "internalType": "address",
              "name": "fromParti",
              "type": "address"
            },
            {
              "internalType": "address",
              "name": "toParti",
              "type": "address"
            },
            {
              "internalType": "string",
              "name": "productID",
              "type": "string"
            },
            {
              "internalType": "string",
              "name": "materialID",
              "type": "string"
            },
            {
              "internalType": "string",
              "name": "amount",
              "type": "string"
            },
            {
              "internalType": "uint256",
              "name": "issueTime",
              "type": "uint256"
            }
          ],
          "internalType": "struct PharmaChain.Request",
          "name": "",
          "type": "tuple"
        }
      ],
      "stateMutability": "view",
      "type": "function",
      "constant": true
    },
    {
      "inputs": [
        {
          "internalType": "string",
          "name": "_product",
          "type": "string"
        }
      ],
      "name": "getProductRequests",
      "outputs": [
        {
          "components": [
            {
              "internalType": "uint256",
              "name": "requestId",
              "type": "uint256"
            },
            {
              "internalType": "address",
              "name": "fromParti",
              "type": "address"
            },
            {
              "internalType": "address",
              "name": "toParti",
              "type": "address"
            },
            {
              "internalType": "string",
              "name": "productID",
              "type": "string"
            },
            {
              "internalType": "string",
              "name": "materialID",
              "type": "string"
            },
            {
              "internalType": "string",
              "name": "amount",
              "type": "string"
            },
            {
              "internalType": "uint256",
              "name": "issueTime",
              "type": "uint256"
            }
          ],
          "internalType": "struct PharmaChain.Request[]",
          "name": "",
          "type": "tuple[]"
        }
      ],
      "stateMutability": "view",
      "type": "function",
      "constant": true
    },
    {
      "inputs": [
        {
          "internalType": "address",
          "name": "_addr",
          "type": "address"
        }
      ],
      "name": "setAsBank",
      "outputs": [],
      "stateMutability": "nonpayable",
      "type": "function"
    },
    {
      "inputs": [],
      "name": "getBank",
      "outputs": [
        {
          "internalType": "address",
          "name": "",
          "type": "address"
        }
      ],
      "stateMutability": "view",
      "type": "function",
      "constant": true
    },
    {
      "inputs": [
        {
          "internalType": "address",
          "name": "_userAddr",
          "type": "address"
        },
        {
          "internalType": "string",
          "name": "_userName",
          "type": "string"
        }
      ],
      "name": "createBankAccount",
      "outputs": [],
      "stateMutability": "nonpayable",
      "type": "function"
    },
    {
      "inputs": [
        {
          "internalType": "address",
          "name": "_userAddr",
          "type": "address"
        }
      ],
      "name": "hasBankAccount",
      "outputs": [
        {
          "internalType": "bool",
          "name": "",
          "type": "bool"
        }
      ],
      "stateMutability": "view",
      "type": "function",
      "constant": true
    },
    {
      "inputs": [
        {
          "internalType": "address",
          "name": "_userAddr",
          "type": "address"
        },
        {
          "internalType": "uint256",
          "name": "_amount",
          "type": "uint256"
        }
      ],
      "name": "deposit",
      "outputs": [
        {
          "internalType": "bool",
          "name": "",
          "type": "bool"
        }
      ],
      "stateMutability": "nonpayable",
      "type": "function"
    },
    {
      "inputs": [
        {
          "internalType": "address",
          "name": "_userAddr",
          "type": "address"
        },
        {
          "internalType": "uint256",
          "name": "_amount",
          "type": "uint256"
        }
      ],
      "name": "withdraw",
      "outputs": [
        {
          "internalType": "bool",
          "name": "",
          "type": "bool"
        }
      ],
      "stateMutability": "nonpayable",
      "type": "function"
    },
    {
      "inputs": [
        {
          "internalType": "address",
          "name": "_userAddr",
          "type": "address"
        }
      ],
      "name": "getBalance",
      "outputs": [
        {
          "internalType": "uint256",
          "name": "x",
          "type": "uint256"
        }
      ],
      "stateMutability": "view",
      "type": "function",
      "constant": true
    },
    {
      "inputs": [
        {
          "internalType": "address",
          "name": "_from",
          "type": "address"
        },
        {
          "internalType": "address",
          "name": "_to",
          "type": "address"
        },
        {
          "internalType": "uint256",
          "name": "_amount",
          "type": "uint256"
        }
      ],
      "name": "transfer",
      "outputs": [
        {
          "internalType": "bool",
          "name": "",
          "type": "bool"
        }
      ],
      "stateMutability": "nonpayable",
      "type": "function"
    },
    {
      "inputs": [
        {
          "internalType": "address",
          "name": "_account",
          "type": "address"
        }
      ],
      "name": "getAccountDetails",
      "outputs": [
        {
          "components": [
            {
              "internalType": "address",
              "name": "userId",
              "type": "address"
            },
            {
              "internalType": "string",
              "name": "userName",
              "type": "string"
            },
            {
              "internalType": "uint256",
              "name": "userBalance",
              "type": "uint256"
            },
            {
              "internalType": "bool",
              "name": "isActive",
              "type": "bool"
            }
          ],
          "internalType": "struct PharmaChain.BankAccount",
          "name": "",
          "type": "tuple"
        }
      ],
      "stateMutability": "view",
      "type": "function",
      "constant": true
    }
  ],
  "bytecode": "0x60806040526000805534801561001457600080fd5b50615beb80620000256000396000f3fe608060405234801561001057600080fd5b50600436106102d55760003560e01c80636c377c1f11610182578063b26338b0116100e9578063c933a2ad116100a2578063de67ef8a1161007c578063de67ef8a146106e8578063def1ca38146106fb578063f3fef3a31461070e578063f8b2cb4f14610721576102d5565b8063c933a2ad146106af578063d4f5ed48146106c2578063d6df0675146106d5576102d5565b8063b26338b014610621578063b9dab0ff14610634578063bbf5f77414610654578063beabacc814610674578063bebaef2b14610687578063c29b2f201461069a576102d5565b8063881de0de1161013b578063881de0de146105a257806388c6fb4b146105c25780638d0359b5146105d557806396d64879146105e857806398de5cef146105fb578063b1f9ed411461060e576102d5565b80636c377c1f1461052e5780636eac3eb8146105415780637f5cf16e1461055457806380dfedcd1461057457806384f130941461057c5780638721aab21461058f576102d5565b80632f8bf1491161024157806348c18e23116101fa57806359c8351f116101d457806359c8351f146104ed57806360d704db1461050057806362d113011461050857806368f488081461051b576102d5565b806348c18e23146104b25780634cd9cc3d146104c55780635280ae1d146104da576102d5565b80632f8bf149146104195780632fc819161461042c578063347b1b831461043f5780633f2019781461045f578063477dec5d1461047f57806347e7ef2414610492576102d5565b8063130ff11d11610293578063130ff11d146103735780631f94d0e7146103935780632352d4aa146103a657806326757b73146103c65780632aceb534146103e65780632c3e2cf714610406576102d5565b8062df6812146102da5780630589a27c146102ef57806306177b4e1461030d578063096a71e21461032d5780630e34b00e1461034d5780630e96e43714610360575b600080fd5b6102ed6102e8366004614d90565b610734565b005b6102f761077e565b6040516103049190615599565b60405180910390f35b61032061031b366004614b5a565b610782565b60405161030491906156de565b61034061033b366004614d56565b610bae565b60405161030491906159e3565b6102ed61035b366004614de6565b610ec0565b6102ed61036e366004614d56565b61110b565b610386610381366004614d56565b611150565b6040516103049190615ac1565b6103406103a1366004614d56565b611178565b6103b96103b4366004614d56565b611190565b6040516103049190615a9b565b6103d96103d43660046152b9565b611305565b6040516103049190615aae565b6103f96103f4366004614b5a565b611520565b6040516103049190615993565b6102ed610414366004614b5a565b61161a565b6102ed610427366004614d90565b61168f565b6102ed61043a366004614c86565b6116c1565b61045261044d366004614b5a565b611762565b6040516103049190615784565b61047261046d366004614d56565b6119bc565b6040516103049190615a88565b6102ed61048d366004614b5a565b611d9e565b6104a56104a0366004614d2d565b611dc0565b604051610304919061582a565b6103866104c0366004614d56565b611ed9565b6104cd611eeb565b604051610304919061560d565b6104a56104e8366004614b5a565b6120c2565b6104a56104fb366004614d90565b612108565b6102f7612161565b6102ed6105163660046151cd565b612170565b6102ed610529366004614ba6565b61227b565b61045261053c366004614d56565b6124a3565b61034061054f366004614d56565b612705565b610567610562366004614d56565b61271d565b60405161030491906157d7565b610320612afb565b6102ed61058a366004614b5a565b612f07565b6102ed61059d366004614cd1565b612f52565b6105b56105b0366004614d56565b61324d565b6040516103049190615835565b6104a56105d0366004614b74565b6132fd565b6102ed6105e3366004614f7b565b61332b565b6104a56105f6366004614b5a565b61372c565b610386610609366004614d56565b613757565b6102ed61061c36600461508e565b613769565b6105b561062f366004614d56565b613834565b610647610642366004614d56565b613846565b6040516103049190615a75565b610667610662366004614d56565b613b61565b60405161030491906155ad565b6104a5610682366004614c4b565b613c4d565b6102ed61069536600461525a565b613dfc565b6106a2613ece565b6040516103049190615731565b6105b56106bd3660046152b9565b6140f0565b6102ed6106d036600461525a565b61410d565b6102ed6106e3366004614e69565b6141ca565b6106a26106f6366004614b5a565b614315565b6102ed610709366004614d56565b61454b565b6104a561071c366004614d2d565b6145d3565b61038661072f366004614b5a565b6146f3565b600c82604051610744919061557d565b90815260405160209181900382019020805460018101825560009182529082902083516107799391909201919084019061475a565b505050565b3090565b6001600160a01b0381166000908152600d60209081526040808320805482518185028101850190935280835260609492939192909184015b82821015610ba2576000848152602090819020604080516101608101909152600b850290910180546001600160a01b03168252600181018054929391929184019161080490615b4e565b80601f016020809104026020016040519081016040528092919081815260200182805461083090615b4e565b801561087d5780601f106108525761010080835404028352916020019161087d565b820191906000526020600020905b81548152906001019060200180831161086057829003601f168201915b5050505050815260200160028201805461089690615b4e565b80601f01602080910402602001604051908101604052809291908181526020018280546108c290615b4e565b801561090f5780601f106108e45761010080835404028352916020019161090f565b820191906000526020600020905b8154815290600101906020018083116108f257829003601f168201915b505050505081526020016003820154815260200160048201805461093290615b4e565b80601f016020809104026020016040519081016040528092919081815260200182805461095e90615b4e565b80156109ab5780601f10610980576101008083540402835291602001916109ab565b820191906000526020600020905b81548152906001019060200180831161098e57829003601f168201915b505050505081526020016005820180546109c490615b4e565b80601f01602080910402602001604051908101604052809291908181526020018280546109f090615b4e565b8015610a3d5780601f10610a1257610100808354040283529160200191610a3d565b820191906000526020600020905b815481529060010190602001808311610a2057829003601f168201915b50505050508152602001600682018054610a5690615b4e565b80601f0160208091040260200160405190810160405280929190818152602001828054610a8290615b4e565b8015610acf5780601f10610aa457610100808354040283529160200191610acf565b820191906000526020600020905b815481529060010190602001808311610ab257829003601f168201915b50505050508152602001600782018054610ae890615b4e565b80601f0160208091040260200160405190810160405280929190818152602001828054610b1490615b4e565b8015610b615780601f10610b3657610100808354040283529160200191610b61565b820191906000526020600020905b815481529060010190602001808311610b4457829003601f168201915b5050509183525050600882015460ff16151560208083019190915260098301546040830152600a9092015460609091015290825260019290920191016107ba565b5050505090505b919050565b610bb66147de565b601582604051610bc6919061557d565b90815260200160405180910390206040518060a0016040529081600082018054610bef90615b4e565b80601f0160208091040260200160405190810160405280929190818152602001828054610c1b90615b4e565b8015610c685780601f10610c3d57610100808354040283529160200191610c68565b820191906000526020600020905b815481529060010190602001808311610c4b57829003601f168201915b50505050508152602001600182018054610c8190615b4e565b80601f0160208091040260200160405190810160405280929190818152602001828054610cad90615b4e565b8015610cfa5780601f10610ccf57610100808354040283529160200191610cfa565b820191906000526020600020905b815481529060010190602001808311610cdd57829003601f168201915b50505050508152602001600282018054610d1390615b4e565b80601f0160208091040260200160405190810160405280929190818152602001828054610d3f90615b4e565b8015610d8c5780601f10610d6157610100808354040283529160200191610d8c565b820191906000526020600020905b815481529060010190602001808311610d6f57829003601f168201915b50505050508152602001600382018054610da590615b4e565b80601f0160208091040260200160405190810160405280929190818152602001828054610dd190615b4e565b8015610e1e5780601f10610df357610100808354040283529160200191610e1e565b820191906000526020600020905b815481529060010190602001808311610e0157829003601f168201915b50505050508152602001600482018054610e3790615b4e565b80601f0160208091040260200160405190810160405280929190818152602001828054610e6390615b4e565b8015610eb05780601f10610e8557610100808354040283529160200191610eb0565b820191906000526020600020905b815481529060010190602001808311610e9357829003601f168201915b5050505050815250509050919050565b604080516080810182523380825260208083018781528385018790526060840186905260009283526007825293822080546001808201835591845292829020845160049094020180546001600160a01b0319166001600160a01b039094169390931783559351805193948594610f3d93918501929091019061475a565b5060408201518051610f5991600284019160209091019061475a565b5060608201518051610f7591600384019160209091019061475a565b50505080600b85604051610f89919061557d565b90815260405160209181900382019020825181546001600160a01b0319166001600160a01b039091161781558282015180519192610fcf9260018501929091019061475a565b5060408201518051610feb91600284019160209091019061475a565b506060820151805161100791600384019160209091019061475a565b5050600480546001810182556000829052835191027f8a35acfbc15ff81a39ae7d344fd709f28e8600b4aa8c65c6b64bfe7fe36bd19b810180546001600160a01b039093166001600160a01b0319909316929092178255602080850151805186955061109a937f8a35acfbc15ff81a39ae7d344fd709f28e8600b4aa8c65c6b64bfe7fe36bd19c0192919091019061475a565b50604082015180516110b691600284019160209091019061475a565b50606082015180516110d291600384019160209091019061475a565b505050611105846040518060400160405280600e81526020016d0aa9c888aa45aa48aa68a82a486960931b815250610734565b50505050565b42336001600160a01b03167f530abb16f843103fba748c032a23827a5140b72d210f41d8bbbc183708de5240836040516111459190615835565b60405180910390a350565b6000601782604051611162919061557d565b9081526020016040518091039020549050919050565b6111806147de565b601682604051610bc6919061557d565b61119861480d565b600b826040516111a8919061557d565b9081526040805191829003602090810183206080840190925281546001600160a01b03168352600182018054918401916111e190615b4e565b80601f016020809104026020016040519081016040528092919081815260200182805461120d90615b4e565b801561125a5780601f1061122f5761010080835404028352916020019161125a565b820191906000526020600020905b81548152906001019060200180831161123d57829003601f168201915b5050505050815260200160028201805461127390615b4e565b80601f016020809104026020016040519081016040528092919081815260200182805461129f90615b4e565b80156112ec5780601f106112c1576101008083540402835291602001916112ec565b820191906000526020600020905b8154815290600101906020018083116112cf57829003601f168201915b50505050508152602001600382018054610e3790615b4e565b61130d61483e565b600082815260106020908152604091829020825160e0810184528154815260018201546001600160a01b039081169382019390935260028201549092169282019290925260038201805491929160608401919061136990615b4e565b80601f016020809104026020016040519081016040528092919081815260200182805461139590615b4e565b80156113e25780601f106113b7576101008083540402835291602001916113e2565b820191906000526020600020905b8154815290600101906020018083116113c557829003601f168201915b505050505081526020016004820180546113fb90615b4e565b80601f016020809104026020016040519081016040528092919081815260200182805461142790615b4e565b80156114745780601f1061144957610100808354040283529160200191611474565b820191906000526020600020905b81548152906001019060200180831161145757829003601f168201915b5050505050815260200160058201805461148d90615b4e565b80601f01602080910402602001604051908101604052809291908181526020018280546114b990615b4e565b80156115065780601f106114db57610100808354040283529160200191611506565b820191906000526020600020905b8154815290600101906020018083116114e957829003601f168201915b505050505081526020016006820154815250509050919050565b61152861488d565b6002546001600160a01b039081166000908152601e602090815260408083208685168452825291829020825160808101909352805490931682526001830180549293929184019161157890615b4e565b80601f01602080910402602001604051908101604052809291908181526020018280546115a490615b4e565b80156115f15780601f106115c6576101008083540402835291602001916115f1565b820191906000526020600020905b8154815290600101906020018083116115d457829003601f168201915b50505091835250506002820154602082015260039091015460ff16151560409091015292915050565b3360008181526005602081815260408084206001600160a01b03969096168085529582528084208054600160ff199182168117909255938352818520958552948252808420805490931685179092556006815290822080549384018155825290200180546001600160a01b0319169091179055565b80600a836040516116a0919061557d565b9081526020016040518091039020908051906020019061077992919061475a565b604080516080810182526001600160a01b038481168083526020808401868152600085870181905260016060870181905260025486168252601e845287822094825293835295909520845181546001600160a01b03191694169390931783559351805193948594611738938501929091019061475a565b50604082015160028201556060909101516003909101805460ff1916911515919091179055505050565b6001600160a01b0381166000908152600f60209081526040808320805482518185028101850190935280835260609492939192909184015b82821015610ba25760008481526020908190206040805160e081018252600786029092018054835260018101546001600160a01b03908116948401949094526002810154909316908201526003820180549192916060840191906117fd90615b4e565b80601f016020809104026020016040519081016040528092919081815260200182805461182990615b4e565b80156118765780601f1061184b57610100808354040283529160200191611876565b820191906000526020600020905b81548152906001019060200180831161185957829003601f168201915b5050505050815260200160048201805461188f90615b4e565b80601f01602080910402602001604051908101604052809291908181526020018280546118bb90615b4e565b80156119085780601f106118dd57610100808354040283529160200191611908565b820191906000526020600020905b8154815290600101906020018083116118eb57829003601f168201915b5050505050815260200160058201805461192190615b4e565b80601f016020809104026020016040519081016040528092919081815260200182805461194d90615b4e565b801561199a5780601f1061196f5761010080835404028352916020019161199a565b820191906000526020600020905b81548152906001019060200180831161197d57829003601f168201915b505050505081526020016006820154815250508152602001906001019061179a565b6119c46148c0565b600e826040516119d4919061557d565b908152604080519182900360209081018320610160840190925281546001600160a01b0316835260018201805491840191611a0e90615b4e565b80601f0160208091040260200160405190810160405280929190818152602001828054611a3a90615b4e565b8015611a875780601f10611a5c57610100808354040283529160200191611a87565b820191906000526020600020905b815481529060010190602001808311611a6a57829003601f168201915b50505050508152602001600282018054611aa090615b4e565b80601f0160208091040260200160405190810160405280929190818152602001828054611acc90615b4e565b8015611b195780601f10611aee57610100808354040283529160200191611b19565b820191906000526020600020905b815481529060010190602001808311611afc57829003601f168201915b5050505050815260200160038201548152602001600482018054611b3c90615b4e565b80601f0160208091040260200160405190810160405280929190818152602001828054611b6890615b4e565b8015611bb55780601f10611b8a57610100808354040283529160200191611bb5565b820191906000526020600020905b815481529060010190602001808311611b9857829003601f168201915b50505050508152602001600582018054611bce90615b4e565b80601f0160208091040260200160405190810160405280929190818152602001828054611bfa90615b4e565b8015611c475780601f10611c1c57610100808354040283529160200191611c47565b820191906000526020600020905b815481529060010190602001808311611c2a57829003601f168201915b50505050508152602001600682018054611c6090615b4e565b80601f0160208091040260200160405190810160405280929190818152602001828054611c8c90615b4e565b8015611cd95780601f10611cae57610100808354040283529160200191611cd9565b820191906000526020600020905b815481529060010190602001808311611cbc57829003601f168201915b50505050508152602001600782018054611cf290615b4e565b80601f0160208091040260200160405190810160405280929190818152602001828054611d1e90615b4e565b8015611d6b5780601f10611d4057610100808354040283529160200191611d6b565b820191906000526020600020905b815481529060010190602001808311611d4e57829003601f168201915b5050509183525050600882015460ff161515602082015260098201546040820152600a9091015460609091015292915050565b600280546001600160a01b0319166001600160a01b0392909216919091179055565b6000808211611dea5760405162461bcd60e51b8152600401611de190615848565b60405180910390fd5b6002546001600160a01b039081166000908152601e602090815260408083208488168085529252909120549091161415611ecf57600280546001600160a01b039081166000908152601e602090815260408083209388168352929052200154611e538382615af3565b600280546001600160a01b039081166000908152601e60209081526040808320938a168084529390915290819020909201839055905191925042917f11cccc9b3fbc8fd163c4dbf6c7afdce1433c5cf351f29596a006f3720f648c2090611ebd90889088906158fb565b60405180910390a36001915050611ed3565b5060005b92915050565b6000601882604051611162919061557d565b336000908152601260209081526040808320805482518185028101850190935280835260609492939192909184015b828210156120b95760008481526020908190206040805160e081018252600786029092018054835260018101546001600160a01b0390811694840194909452600281015484169183019190915260038101549092166060820152600482018054919291608084019190611f8c90615b4e565b80601f0160208091040260200160405190810160405280929190818152602001828054611fb890615b4e565b80156120055780601f10611fda57610100808354040283529160200191612005565b820191906000526020600020905b815481529060010190602001808311611fe857829003601f168201915b5050505050815260200160058201805461201e90615b4e565b80601f016020809104026020016040519081016040528092919081815260200182805461204a90615b4e565b80156120975780601f1061206c57610100808354040283529160200191612097565b820191906000526020600020905b81548152906001019060200180831161207a57829003601f168201915b5050505050815260200160068201548152505081526020019060010190611f1a565b50505050905090565b6002546001600160a01b039081166000908152601e6020908152604080832093851683529290529081206003015460ff161561210057506001610ba9565b506000610ba9565b60008160405160200161211b919061557d565b6040516020818303038152906040528051906020012083604051602001612142919061557d565b6040516020818303038152906040528051906020012014905092915050565b6002546001600160a01b031690565b61217a848361168f565b8060158560405161218b919061557d565b908152602001604051809103902060008201518160000190805190602001906121b592919061475a565b5060208281015180516121ce926001850192019061475a565b50604082015180516121ea91600284019160209091019061475a565b506060820151805161220691600384019160209091019061475a565b506080820151805161222291600484019160209091019061475a565b5090505082601885604051612237919061557d565b908152602001604051809103902081905550611105846040518060400160405280601081526020016f50524f44554354494f4e2d524541445960801b815250610734565b600160008082825461228d9190615af3565b90915550506040805160e08101825260008054808352336020808501919091526001600160a01b038a811685870152891660608501526080840188905260a084018790524260c0850152908252601b8152929020835191926122f2929085019061475a565b50805160009081526013602090815260409182902083518155818401516001820180546001600160a01b03199081166001600160a01b039384161790915593850151600283018054861691831691909117905560608501516003830180549095169116179092556080830151805184939261237492600485019291019061475a565b5060a0820151805161239091600584019160209091019061475a565b5060c091909101516006909101553360009081526012602090815260408083208054600180820183559185529383902085516007909502019384558483015190840180546001600160a01b03199081166001600160a01b0393841617909155918501516002850180548416918316919091179055606085015160038501805490931691161790556080830151805184939261243292600485019291019061475a565b5060a0820151805161244e91600584019160209091019061475a565b5060c08201518160060155505042336001600160a01b03167f530abb16f843103fba748c032a23827a5140b72d210f41d8bbbc183708de524060405161249390615869565b60405180910390a3505050505050565b60606011826040516124b5919061557d565b9081526020016040518091039020805480602002602001604051908101604052809291908181526020016000905b82821015610ba25760008481526020908190206040805160e081018252600786029092018054835260018101546001600160a01b039081169484019490945260028101549093169082015260038201805491929160608401919061254690615b4e565b80601f016020809104026020016040519081016040528092919081815260200182805461257290615b4e565b80156125bf5780601f10612594576101008083540402835291602001916125bf565b820191906000526020600020905b8154815290600101906020018083116125a257829003601f168201915b505050505081526020016004820180546125d890615b4e565b80601f016020809104026020016040519081016040528092919081815260200182805461260490615b4e565b80156126515780601f1061262657610100808354040283529160200191612651565b820191906000526020600020905b81548152906001019060200180831161263457829003601f168201915b5050505050815260200160058201805461266a90615b4e565b80601f016020809104026020016040519081016040528092919081815260200182805461269690615b4e565b80156126e35780601f106126b8576101008083540402835291602001916126e3565b820191906000526020600020905b8154815290600101906020018083116126c657829003601f168201915b50505050508152602001600682015481525050815260200190600101906124e3565b61270d6147de565b601482604051610bc6919061557d565b606060088260405161272f919061557d565b9081526020016040518091039020805480602002602001604051908101604052809291908181526020016000905b82821015610ba257838290600052602060002090600602016040518060c001604052908160008201805461279090615b4e565b80601f01602080910402602001604051908101604052809291908181526020018280546127bc90615b4e565b80156128095780601f106127de57610100808354040283529160200191612809565b820191906000526020600020905b8154815290600101906020018083116127ec57829003601f168201915b5050505050815260200160018201805461282290615b4e565b80601f016020809104026020016040519081016040528092919081815260200182805461284e90615b4e565b801561289b5780601f106128705761010080835404028352916020019161289b565b820191906000526020600020905b81548152906001019060200180831161287e57829003601f168201915b505050505081526020016002820180546128b490615b4e565b80601f01602080910402602001604051908101604052809291908181526020018280546128e090615b4e565b801561292d5780601f106129025761010080835404028352916020019161292d565b820191906000526020600020905b81548152906001019060200180831161291057829003601f168201915b5050505050815260200160038201805461294690615b4e565b80601f016020809104026020016040519081016040528092919081815260200182805461297290615b4e565b80156129bf5780601f10612994576101008083540402835291602001916129bf565b820191906000526020600020905b8154815290600101906020018083116129a257829003601f168201915b505050505081526020016004820180546129d890615b4e565b80601f0160208091040260200160405190810160405280929190818152602001828054612a0490615b4e565b8015612a515780601f10612a2657610100808354040283529160200191612a51565b820191906000526020600020905b815481529060010190602001808311612a3457829003601f168201915b50505050508152602001600582018054612a6a90615b4e565b80601f0160208091040260200160405190810160405280929190818152602001828054612a9690615b4e565b8015612ae35780601f10612ab857610100808354040283529160200191612ae3565b820191906000526020600020905b815481529060010190602001808311612ac657829003601f168201915b5050505050815250508152602001906001019061275d565b60606003805480602002602001604051908101604052809291908181526020016000905b828210156120b9576000848152602090819020604080516101608101909152600b850290910180546001600160a01b031682526001810180549293919291840191612b6990615b4e565b80601f0160208091040260200160405190810160405280929190818152602001828054612b9590615b4e565b8015612be25780601f10612bb757610100808354040283529160200191612be2565b820191906000526020600020905b815481529060010190602001808311612bc557829003601f168201915b50505050508152602001600282018054612bfb90615b4e565b80601f0160208091040260200160405190810160405280929190818152602001828054612c2790615b4e565b8015612c745780601f10612c4957610100808354040283529160200191612c74565b820191906000526020600020905b815481529060010190602001808311612c5757829003601f168201915b5050505050815260200160038201548152602001600482018054612c9790615b4e565b80601f0160208091040260200160405190810160405280929190818152602001828054612cc390615b4e565b8015612d105780601f10612ce557610100808354040283529160200191612d10565b820191906000526020600020905b815481529060010190602001808311612cf357829003601f168201915b50505050508152602001600582018054612d2990615b4e565b80601f0160208091040260200160405190810160405280929190818152602001828054612d5590615b4e565b8015612da25780601f10612d7757610100808354040283529160200191612da2565b820191906000526020600020905b815481529060010190602001808311612d8557829003601f168201915b50505050508152602001600682018054612dbb90615b4e565b80601f0160208091040260200160405190810160405280929190818152602001828054612de790615b4e565b8015612e345780601f10612e0957610100808354040283529160200191612e34565b820191906000526020600020905b815481529060010190602001808311612e1757829003601f168201915b50505050508152602001600782018054612e4d90615b4e565b80601f0160208091040260200160405190810160405280929190818152602001828054612e7990615b4e565b8015612ec65780601f10612e9b57610100808354040283529160200191612ec6565b820191906000526020600020905b815481529060010190602001808311612ea957829003601f168201915b5050509183525050600882015460ff16151560208083019190915260098301546040830152600a909201546060909101529082526001929092019101612b1f565b3360008181526005602081815260408084206001600160a01b03969096168452948152848320805460ff19908116909155918152848320938352929092529190912080549091169055565b6001600080828254612f649190615af3565b90915550506040805160e08101825260008054808352336020808501919091526001600160a01b038a1684860152606084018990526080840188905260a084018790524260c0850152908252601b815292902083519192612fc8929085019061475a565b50336000908152600f602090815260408083208054600180820183559185529383902085516007909502019384558483015190840180546001600160a01b03199081166001600160a01b03938416179091559185015160028501805490931691161790556060830151805184939261304792600385019291019061475a565b506080820151805161306391600484019160209091019061475a565b5060a0820151805161307f91600584019160209091019061475a565b5060c09190910151600690910155805160009081526010602090815260409182902083518155818401516001820180546001600160a01b03199081166001600160a01b039384161790915593850151600283018054909516911617909255606083015180518493926130f892600385019291019061475a565b506080820151805161311491600484019160209091019061475a565b5060a0820151805161313091600584019160209091019061475a565b5060c0820151816006015590505060118560405161314e919061557d565b908152604080516020928190038301902080546001808201835560009283529184902085516007909202019081558484015191810180546001600160a01b03199081166001600160a01b0394851617909155928501516002820180549094169216919091179091556060830151805184936131d092600385019291019061475a565b50608082015180516131ec91600484019160209091019061475a565b5060a0820151805161320891600584019160209091019061475a565b5060c08201518160060155505042336001600160a01b03167f530abb16f843103fba748c032a23827a5140b72d210f41d8bbbc183708de52406040516124939061596a565b6060600a8260405161325f919061557d565b9081526020016040518091039020805461327890615b4e565b80601f01602080910402602001604051908101604052809291908181526020018280546132a490615b4e565b80156132f15780601f106132c6576101008083540402835291602001916132f1565b820191906000526020600020905b8154815290600101906020018083116132d457829003601f168201915b50505050509050919050565b6001600160a01b03918216600090815260056020908152604080832093909416825291909152205460ff1690565b60408051610160810182523380825260208083018d81528385018d9052606084018c9052608084018b905260a084018a905260c0840189905260e084018890528615156101008501524261012085015261014084018690526000928352600d8252938220805460018082018355918452928290208451600b9094020180546001600160a01b0319166001600160a01b0390941693909317835593518051939485946133dd93918501929091019061475a565b50604082015180516133f991600284019160209091019061475a565b50606082015160038201556080820151805161341f91600484019160209091019061475a565b5060a0820151805161343b91600584019160209091019061475a565b5060c0820151805161345791600684019160209091019061475a565b5060e0820151805161347391600784019160209091019061475a565b5061010082015160088201805460ff1916911515919091179055610120820151600982015561014090910151600a909101556040518190600e906134b8908d9061557d565b90815260405160209181900382019020825181546001600160a01b0319166001600160a01b0390911617815582820151805191926134fe9260018501929091019061475a565b506040820151805161351a91600284019160209091019061475a565b50606082015160038201556080820151805161354091600484019160209091019061475a565b5060a0820151805161355c91600584019160209091019061475a565b5060c0820151805161357891600684019160209091019061475a565b5060e0820151805161359491600784019160209091019061475a565b5061010082015160088201805460ff1916911515919091179055610120820151600982015561014090910151600a909101556003805460018101825560009190915281517fc2575a0e9e593c00f959f8c92f12db2869c3395a3b0502d05e2516446f71f85b600b90920291820180546001600160a01b0319166001600160a01b0390921691909117815560208084015180518594613658937fc2575a0e9e593c00f959f8c92f12db2869c3395a3b0502d05e2516446f71f85c90910192019061475a565b506040820151805161367491600284019160209091019061475a565b50606082015160038201556080820151805161369a91600484019160209091019061475a565b5060a082015180516136b691600584019160209091019061475a565b5060c082015180516136d291600684019160209091019061475a565b5060e082015180516136ee91600784019160209091019061475a565b5061010082015160088201805460ff1916911515919091179055610120820151600982015561014090910151600a9091015550505050505050505050565b3360009081526005602090815260408083206001600160a01b03949094168352929052205460ff1690565b6000601982604051611162919061557d565b80601a8360405161377a919061557d565b908152602001604051809103902060008201518160000190805190602001906137a492919061475a565b5060208281015180516137bd926001850192019061475a565b50604082015180516137d991600284019160209091019061475a565b50606082015180516137f591600384019160209091019061475a565b506080820151805161381191600484019160209091019061475a565b5060a0820151805161382d91600584019160209091019061475a565b5050505050565b606060098260405161325f919061557d565b61384e614925565b601a8260405161385e919061557d565b90815260200160405180910390206040518060c001604052908160008201805461388790615b4e565b80601f01602080910402602001604051908101604052809291908181526020018280546138b390615b4e565b80156139005780601f106138d557610100808354040283529160200191613900565b820191906000526020600020905b8154815290600101906020018083116138e357829003601f168201915b5050505050815260200160018201805461391990615b4e565b80601f016020809104026020016040519081016040528092919081815260200182805461394590615b4e565b80156139925780601f1061396757610100808354040283529160200191613992565b820191906000526020600020905b81548152906001019060200180831161397557829003601f168201915b505050505081526020016002820180546139ab90615b4e565b80601f01602080910402602001604051908101604052809291908181526020018280546139d790615b4e565b8015613a245780601f106139f957610100808354040283529160200191613a24565b820191906000526020600020905b815481529060010190602001808311613a0757829003601f168201915b50505050508152602001600382018054613a3d90615b4e565b80601f0160208091040260200160405190810160405280929190818152602001828054613a6990615b4e565b8015613ab65780601f10613a8b57610100808354040283529160200191613ab6565b820191906000526020600020905b815481529060010190602001808311613a9957829003601f168201915b50505050508152602001600482018054613acf90615b4e565b80601f0160208091040260200160405190810160405280929190818152602001828054613afb90615b4e565b8015613b485780601f10613b1d57610100808354040283529160200191613b48565b820191906000526020600020905b815481529060010190602001808311613b2b57829003601f168201915b50505050508152602001600582018054610e3790615b4e565b6060600c82604051613b73919061557d565b9081526020016040518091039020805480602002602001604051908101604052809291908181526020016000905b82821015610ba2578382906000526020600020018054613bc090615b4e565b80601f0160208091040260200160405190810160405280929190818152602001828054613bec90615b4e565b8015613c395780601f10613c0e57610100808354040283529160200191613c39565b820191906000526020600020905b815481529060010190602001808311613c1c57829003601f168201915b505050505081526020019060010190613ba1565b600280546001600160a01b039081166000908152601e60209081526040808320938816835292905290812090910154821115613c9b5760405162461bcd60e51b8152600401611de1906158d2565b6002546001600160a01b039081166000908152601e60209081526040808320848916808552925290912054909116148015613d0657506002546001600160a01b039081166000908152601e602090815260408083209387168352929052206003015460ff1615156001145b15613df157600280546001600160a01b039081166000908152601e6020908152604080832089851684529091528082208401549287168252902090910154613d4e8483615b0b565b9150613d5a8482615af3565b600280546001600160a01b039081166000908152601e602081815260408084208d861680865290835281852087018a9055865486168552928252808420948c168452939052908290209092018390555191925042917f11cccc9b3fbc8fd163c4dbf6c7afdce1433c5cf351f29596a006f3720f648c2090613dde9089908990615932565b60405180910390a3600192505050613df5565b5060005b9392505050565b80601484604051613e0d919061557d565b90815260200160405180910390206000820151816000019080519060200190613e3792919061475a565b506020828101518051613e50926001850192019061475a565b5060408201518051613e6c91600284019160209091019061475a565b5060608201518051613e8891600384019160209091019061475a565b5060808201518051613ea491600484019160209091019061475a565b5090505081601784604051613eb9919061557d565b90815260405190819003602001902055505050565b60606004805480602002602001604051908101604052809291908181526020016000905b828210156120b957600084815260209081902060408051608081019091526004850290910180546001600160a01b031682526001810180549293919291840191613f3b90615b4e565b80601f0160208091040260200160405190810160405280929190818152602001828054613f6790615b4e565b8015613fb45780601f10613f8957610100808354040283529160200191613fb4565b820191906000526020600020905b815481529060010190602001808311613f9757829003601f168201915b50505050508152602001600282018054613fcd90615b4e565b80601f0160208091040260200160405190810160405280929190818152602001828054613ff990615b4e565b80156140465780601f1061401b57610100808354040283529160200191614046565b820191906000526020600020905b81548152906001019060200180831161402957829003601f168201915b5050505050815260200160038201805461405f90615b4e565b80601f016020809104026020016040519081016040528092919081815260200182805461408b90615b4e565b80156140d85780601f106140ad576101008083540402835291602001916140d8565b820191906000526020600020905b8154815290600101906020018083116140bb57829003601f168201915b50505050508152505081526020019060010190613ef2565b6000818152601b6020526040902080546060919061327890615b4e565b8060168460405161411e919061557d565b9081526020016040518091039020600082015181600001908051906020019061414892919061475a565b506020828101518051614161926001850192019061475a565b506040820151805161417d91600284019160209091019061475a565b506060820151805161419991600384019160209091019061475a565b50608082015180516141b591600484019160209091019061475a565b5090505081601984604051613eb9919061557d565b60006040518060c0016040528088815260200187815260200184815260200186815260200185815260200183815250905060088860405161420b919061557d565b90815260405160209181900382019020805460018101825560009182529082902083518051859460069094029092019261424a9284929091019061475a565b506020828101518051614263926001850192019061475a565b506040820151805161427f91600284019160209091019061475a565b506060820151805161429b91600384019160209091019061475a565b50608082015180516142b791600484019160209091019061475a565b5060a082015180516142d391600584019160209091019061475a565b5050506142df8861454b565b61430b886040518060400160405280600a815260200169149151d254d51154915160b21b815250610734565b5050505050505050565b6001600160a01b0381166000908152600760209081526040808320805482518185028101850190935280835260609492939192909184015b82821015610ba257600084815260209081902060408051608081019091526004850290910180546001600160a01b03168252600181018054929391929184019161439690615b4e565b80601f01602080910402602001604051908101604052809291908181526020018280546143c290615b4e565b801561440f5780601f106143e45761010080835404028352916020019161440f565b820191906000526020600020905b8154815290600101906020018083116143f257829003601f168201915b5050505050815260200160028201805461442890615b4e565b80601f016020809104026020016040519081016040528092919081815260200182805461445490615b4e565b80156144a15780601f10614476576101008083540402835291602001916144a1565b820191906000526020600020905b81548152906001019060200180831161448457829003601f168201915b505050505081526020016003820180546144ba90615b4e565b80601f01602080910402602001604051908101604052809291908181526020018280546144e690615b4e565b80156145335780601f1061450857610100808354040283529160200191614533565b820191906000526020600020905b81548152906001019060200180831161451657829003601f168201915b5050505050815250508152602001906001019061434d565b60088160405161455b919061557d565b908152602001604051809103902060008154811061458957634e487b7160e01b600052603260045260246000fd5b90600052602060002090600602016002016009826040516145aa919061557d565b90815260200160405180910390209080546145c490615b4e565b6145cf92919061495b565b5050565b600280546001600160a01b039081166000908152601e6020908152604080832093871683529290529081209091015482106146205760405162461bcd60e51b8152600401611de1906158d2565b6002546001600160a01b039081166000908152601e602090815260408083208488168085529252909120549091161415611ecf57600280546001600160a01b039081166000908152601e6020908152604080832093881683529290522001546146898382615b0b565b600280546001600160a01b039081166000908152601e60209081526040808320938a168084529390915290819020909201839055905191925042917f11cccc9b3fbc8fd163c4dbf6c7afdce1433c5cf351f29596a006f3720f648c2090611ebd9088908890615898565b6002546001600160a01b039081166000908152601e6020908152604080832084861680855292528220549192919091161415610ba95750600280546001600160a01b039081166000908152601e602090815260408083209386168352929052200154610ba9565b82805461476690615b4e565b90600052602060002090601f01602090048101928261478857600085556147ce565b82601f106147a157805160ff19168380011785556147ce565b828001600101855582156147ce579182015b828111156147ce5782518255916020019190600101906147b3565b506147da9291506149d6565b5090565b6040518060a0016040528060608152602001606081526020016060815260200160608152602001606081525090565b604051806080016040528060006001600160a01b031681526020016060815260200160608152602001606081525090565b6040518060e001604052806000815260200160006001600160a01b0316815260200160006001600160a01b03168152602001606081526020016060815260200160608152602001600081525090565b604051806080016040528060006001600160a01b0316815260200160608152602001600081526020016000151581525090565b60405180610160016040528060006001600160a01b031681526020016060815260200160608152602001600081526020016060815260200160608152602001606081526020016060815260200160001515815260200160008152602001600081525090565b6040518060c001604052806060815260200160608152602001606081526020016060815260200160608152602001606081525090565b82805461496790615b4e565b90600052602060002090601f01602090048101928261498957600085556147ce565b82601f1061499a57805485556147ce565b828001600101855582156147ce57600052602060002091601f016020900482015b828111156147ce5782548255916001019190600101906149bb565b5b808211156147da57600081556001016149d7565b80356001600160a01b0381168114610ba957600080fd5b80358015158114610ba957600080fd5b600082601f830112614a22578081fd5b81356001600160401b03811115614a3b57614a3b615b9f565b614a4e601f8201601f1916602001615aca565b818152846020838601011115614a62578283fd5b816020850160208301379081016020019190915292915050565b600060a08284031215614a8d578081fd5b614a9760a0615aca565b905081356001600160401b0380821115614ab057600080fd5b614abc85838601614a12565b83526020840135915080821115614ad257600080fd5b614ade85838601614a12565b60208401526040840135915080821115614af757600080fd5b614b0385838601614a12565b60408401526060840135915080821115614b1c57600080fd5b614b2885838601614a12565b60608401526080840135915080821115614b4157600080fd5b50614b4e84828501614a12565b60808301525092915050565b600060208284031215614b6b578081fd5b613df5826149eb565b60008060408385031215614b86578081fd5b614b8f836149eb565b9150614b9d602084016149eb565b90509250929050565b600080600080600060a08688031215614bbd578081fd5b614bc6866149eb565b9450614bd4602087016149eb565b935060408601356001600160401b0380821115614bef578283fd5b614bfb89838a01614a12565b94506060880135915080821115614c10578283fd5b614c1c89838a01614a12565b93506080880135915080821115614c31578283fd5b50614c3e88828901614a12565b9150509295509295909350565b600080600060608486031215614c5f578283fd5b614c68846149eb565b9250614c76602085016149eb565b9150604084013590509250925092565b60008060408385031215614c98578182fd5b614ca1836149eb565b915060208301356001600160401b03811115614cbb578182fd5b614cc785828601614a12565b9150509250929050565b600080600080600060a08688031215614ce8578081fd5b614cf1866149eb565b945060208601356001600160401b0380821115614d0c578283fd5b614d1889838a01614a12565b95506040880135915080821115614bef578283fd5b60008060408385031215614d3f578182fd5b614d48836149eb565b946020939093013593505050565b600060208284031215614d67578081fd5b81356001600160401b03811115614d7c578182fd5b614d8884828501614a12565b949350505050565b60008060408385031215614da2578182fd5b82356001600160401b0380821115614db8578384fd5b614dc486838701614a12565b93506020850135915080821115614dd9578283fd5b50614cc785828601614a12565b600080600060608486031215614dfa578283fd5b83356001600160401b0380821115614e10578485fd5b614e1c87838801614a12565b94506020860135915080821115614e31578384fd5b614e3d87838801614a12565b93506040860135915080821115614e52578283fd5b50614e5f86828701614a12565b9150509250925092565b600080600080600080600060e0888a031215614e83578182fd5b87356001600160401b0380821115614e99578384fd5b614ea58b838c01614a12565b985060208a0135915080821115614eba578384fd5b614ec68b838c01614a12565b975060408a0135915080821115614edb578384fd5b614ee78b838c01614a12565b965060608a0135915080821115614efc578384fd5b614f088b838c01614a12565b955060808a0135915080821115614f1d578384fd5b614f298b838c01614a12565b945060a08a0135915080821115614f3e578384fd5b614f4a8b838c01614a12565b935060c08a0135915080821115614f5f578283fd5b50614f6c8a828b01614a12565b91505092959891949750929550565b60008060008060008060008060006101208a8c031215614f99578283fd5b89356001600160401b0380821115614faf578485fd5b614fbb8d838e01614a12565b9a5060208c0135915080821115614fd0578485fd5b614fdc8d838e01614a12565b995060408c0135985060608c0135915080821115614ff8578485fd5b6150048d838e01614a12565b975060808c0135915080821115615019578485fd5b6150258d838e01614a12565b965060a08c013591508082111561503a578485fd5b6150468d838e01614a12565b955060c08c013591508082111561505b578485fd5b506150688c828d01614a12565b93505061507760e08b01614a02565b91506101008a013590509295985092959850929598565b600080604083850312156150a0578182fd5b82356001600160401b03808211156150b6578384fd5b6150c286838701614a12565b935060208501359150808211156150d7578283fd5b9084019060c082870312156150ea578283fd5b6150f460c0615aca565b823582811115615102578485fd5b61510e88828601614a12565b825250602083013582811115615122578485fd5b61512e88828601614a12565b602083015250604083013582811115615145578485fd5b61515188828601614a12565b604083015250606083013582811115615168578485fd5b61517488828601614a12565b60608301525060808301358281111561518b578485fd5b61519788828601614a12565b60808301525060a0830135828111156151ae578485fd5b6151ba88828601614a12565b60a0830152508093505050509250929050565b600080600080608085870312156151e2578182fd5b84356001600160401b03808211156151f8578384fd5b61520488838901614a12565b9550602087013594506040870135915080821115615220578384fd5b61522c88838901614a12565b93506060870135915080821115615241578283fd5b5061524e87828801614a7c565b91505092959194509250565b60008060006060848603121561526e578081fd5b83356001600160401b0380821115615284578283fd5b61529087838801614a12565b94506020860135935060408601359150808211156152ac578283fd5b50614e5f86828701614a7c565b6000602082840312156152ca578081fd5b5035919050565b6001600160a01b03169052565b15159052565b600081518084526152fc816020860160208601615b22565b601f01601f19169290920160200192915050565b6000815160c0845261532560c08501826152e4565b90506020830151848203602086015261533e82826152e4565b9150506040830151848203604086015261535882826152e4565b9150506060830151848203606086015261537282826152e4565b9150506080830151848203608086015261538c82826152e4565b91505060a083015184820360a08601526153a682826152e4565b95945050505050565b60006101606153bf8484516152d1565b60208301518160208601526153d6828601826152e4565b915050604083015184820360408601526153f082826152e4565b915050606083015160608501526080830151848203608086015261541482826152e4565b91505060a083015184820360a086015261542e82826152e4565b91505060c083015184820360c086015261544882826152e4565b91505060e083015184820360e086015261546282826152e4565b91505061010080840151615478828701826152de565b505061012083810151908501526101409283015192909301919091525090565b600060018060a01b0382511683526020820151608060208501526154bf60808501826152e4565b9050604083015184820360408601526154d882826152e4565b915050606083015184820360608601526153a682826152e4565b600081518352602082015160018060a01b0380821660208601528060408501511660408601525050606082015160e0606085015261553360e08501826152e4565b90506080830151848203608086015261554c82826152e4565b91505060a083015184820360a086015261556682826152e4565b91505060c083015160c08501528091505092915050565b6000825161558f818460208701615b22565b9190910192915050565b6001600160a01b0391909116815260200190565b6000602080830181845280855180835260408601915060408482028701019250838701855b8281101561560057603f198886030184526155ee8583516152e4565b945092850192908501906001016155d2565b5092979650505050505050565b60208082528251828201819052600091906040908185019080840286018301878501865b838110156156d057888303603f19018552815180518452878101516001600160a01b039081168986015287820151168785015260608082015160e0919061567a828801826152d1565b50506080808301518282880152615693838801826152e4565b9250505060a080830151868303828801526156ae83826152e4565b60c0948501519790940196909652505094870194925090860190600101615631565b509098975050505050505050565b6000602080830181845280855180835260408601915060408482028701019250838701855b8281101561560057603f1988860301845261571f8583516153af565b94509285019290850190600101615703565b6000602080830181845280855180835260408601915060408482028701019250838701855b8281101561560057603f19888603018452615772858351615498565b94509285019290850190600101615756565b6000602080830181845280855180835260408601915060408482028701019250838701855b8281101561560057603f198886030184526157c58583516154f2565b945092850192908501906001016157a9565b6000602080830181845280855180835260408601915060408482028701019250838701855b8281101561560057603f19888603018452615818858351615310565b945092850192908501906001016157fc565b901515815260200190565b600060208252613df560208301846152e4565b6020808252600790820152661253959053125160ca1b604082015260600190565b60208082526015908201527410905510d208149154555154d50810d49150551151605a1b604082015260600190565b6060808252600a908201526915d2551211149055d05360b21b60808201526001600160a01b03929092166020830152604082015260a00190565b6020808252600f908201526e125394d551919250d2515395109053608a1b604082015260600190565b60608082526007908201526611115413d4d25560ca1b60808201526001600160a01b03929092166020830152604082015260a00190565b6060808252600890820152672a2920a729a322a960c11b60808201526001600160a01b03929092166020830152604082015260a00190565b6020808252600f908201526e149154555154d50810d49150551151608a1b604082015260600190565b602080825282516001600160a01b031682820152820151608060408301526000906159c160a08401826152e4565b9050604084015160608401526060840151151560808401528091505092915050565b600060208252825160a060208401526159ff60c08401826152e4565b90506020840151601f1980858403016040860152615a1d83836152e4565b92506040860151915080858403016060860152615a3a83836152e4565b92506060860151915080858403016080860152615a5783836152e4565b925060808601519150808584030160a0860152506153a682826152e4565b600060208252613df56020830184615310565b600060208252613df560208301846153af565b600060208252613df56020830184615498565b600060208252613df560208301846154f2565b90815260200190565b6040518181016001600160401b0381118282101715615aeb57615aeb615b9f565b604052919050565b60008219821115615b0657615b06615b89565b500190565b600082821015615b1d57615b1d615b89565b500390565b60005b83811015615b3d578181015183820152602001615b25565b838111156111055750506000910152565b600281046001821680615b6257607f821691505b60208210811415615b8357634e487b7160e01b600052602260045260246000fd5b50919050565b634e487b7160e01b600052601160045260246000fd5b634e487b7160e01b600052604160045260246000fdfea26469706673582212203624531aeacec564c2368a33d638a5db17f3d252d282cfe7309775c10df09eee64736f6c63430008000033",
  "immutableReferences": {},
  "source": "// \"SPDX-License-Identifier: UNLICENSED\"\n// PRODUCT MANAGEMENT AND COST MANAGEMENT GOES HERE\npragma solidity >=0.6.2;\npragma experimental ABIEncoderV2;  \n\n  interface PharmaChainInterface {\n         function   strComp(string memory x , string memory y ) external pure returns (bool);\n         event      requestStateUpdate  (address indexed who, uint indexed timestamp , string  state);\n         event      BankTransact        (string txName, address indexed _from , address  _to , uint _amount , uint indexed timestamp);\n    }\n\n\ncontract PharmaChain {\n    \n  \n// CONTRACT CONTENT GOES HERE\n    \n    // UTILS\n    \n    function strComp(string memory x , string memory y ) public pure returns (bool){\n        \n        return (keccak256(abi.encodePacked((x))) == keccak256(abi.encodePacked((y))));\n        \n    }\n    \n    \n    \n    // END OF UTILS\n\n    \n    uint        trackNoCount = 0;\n    address     admin;\n    address     bank;\n    Material[]  materialArr;\n    Product[]   productArr;\n    mapping (address => mapping(address => bool)) participants;   // trusted participants\n    mapping (address => address[])            trustedPartis; // participants and trusted other trusted mapping for array\n    mapping (address => Product[])          products;    // manufacturer and product\n    mapping (string => Specs[])             productSpecs; // productID and material \n    mapping (string => string)                stdMaterialQty; // std mateiral qty used in product (id) unit\n    mapping (string => string)                actMaterialQty; //  actual material qty used in product (id) unit \n    mapping (string => Product)             productList; // product by id\n    mapping (string => string[])            productPhase; // product id and phases;\n    mapping (address => Material[])         materials;   //Participant(supplier) and material\n    mapping (string => Material)            materialList; // materials by id\n    mapping (address => Request[])          requests;   // participant and requests\n    mapping (uint => Request)               requestList; // requests by id\n    mapping (string => Request[])           productRequests; // request for each product\n    mapping (address => BatchRequest[])     batchRequests; //participant and batch requests\n    mapping (uint => BatchRequest)          batchRequestsList; // request id\n    mapping (string => Cost)                standardProductCosts;\n    mapping (string => Cost)                actualProductCosts;\n    mapping (string => Cost)                flexibleProductCosts;\n    mapping (string => uint)                standardBudgetUnits;\n    mapping (string => uint)                actualBudgetUnits;\n    mapping (string => uint)                flexibleBudgetUnits;\n    mapping (string => MaterialProductionCost) materialCostPlan;   // supplier's material cost data\n    mapping (uint => string)                  requestCost;    // requestId and Cost\n    mapping (address => InventoryItem[])    inventory;   // participant and items inventory\n    mapping (string => InventoryItem)       inventoryList;   // inventory item by item id\n    mapping (address => mapping (address => BankAccount) ) userBankAccounts; // bankAddr -> userAddr -> userAcc\n    event   requestStateUpdate  (address indexed who, uint indexed timestamp , string  state);\n    event   BankTransact        (string txName, address indexed _from , address  _to , uint _amount , uint indexed timestamp);\n    \n    struct BankAccount {\n    \n        address userId;\n        string  userName;\n        uint    userBalance;\n        bool    isActive;\n    }\n    \n    struct Product {\n        \n        address manufacturer;\n        string  productId; //registration no.\n        string  productName;\n        string  productForm; // tablets or capsules\n        \n    }\n    \n    struct Material {\n        address supplier;\n        string  materialID;\n        string  materialName;\n        uint    materialStrength;\n        string  materialForm;\n        string  createdAmount;\n        string  unitCost;\n        string  storageConditions;\n        bool    materialStability;\n        uint    materialManuDate;\n        uint    materialStabilityPeriod; // example 3 years\n    }\n    \n    \n    struct Specs {\n        string  materialName;\n        string  materialType;\n        string  materialAmount;\n        string  materialStrength;\n        string  materialForm;\n        string  materialUnitCost; // cost per total amount of material in a unit product\n        \n    }\n\n    struct Request {\n        uint    requestId;\n        address fromParti;\n        address toParti;\n        string  productID;\n        string  materialID;\n        string  amount;\n        uint    issueTime;\n    }\n    \n    struct BatchRequest {\n        uint    requestId;\n        address fromParti1;\n        address fromParti2;\n        address toParti;\n        string  materialID;\n        string  amount;\n        uint    issueTime;\n    }\n    \n    // Cost Per Product Unit \n    struct Cost {\n        string directMaterialCost;\n        string packagingMaterialCost;\n        string directLaborCost;\n        string totalDirectCost;\n        string CostTOT; // total direct + total indirect\n    }\n    \n    struct MaterialProductionCost {\n         string directMaterialCost;\n         string packagingMaterialCost;\n         string directLaborCost;\n         string shippingCost;\n         string totalDirectCost;\n         string CostTOT;\n    }\n    \n    \n    struct Location {\n        string Latitude;\n        string Longitude;\n    }\n    \n    struct InventoryItem {\n      string itemId;\n      string amount;\n    }\n    \n    // FUNCTIONS AND MODIFIERS\n    \n    // modifier onlyTrusted(address _participant) {\n    //     require(participants[msg.sender][_participant] == true);\n    //     _;\n    // }\n\n    function returnContractAddress() public view returns (address) {\n        return address(this);\n    }\n    \n\n    function addToTrusted(address _participant) public  {\n        participants[msg.sender][_participant] = true;\n        participants[_participant][msg.sender] = true;\n        trustedPartis[msg.sender].push(_participant);\n    }   \n    \n    function removeFromTrusted(address _participant) public {\n        participants[msg.sender][_participant] = false;\n        participants[_participant][msg.sender] = false;\n    }\n    \n    function isTrusted(address _participant) public view returns (bool) {\n        return participants[msg.sender][_participant];\n    }\n    \n    function checkIfTrusted(address _truster, address _trustee) public view returns (bool) {\n        return participants[_truster][_trustee];\n    }\n    \n    function emitRequestStateEvent(string memory _state) public {\n         emit requestStateUpdate(msg.sender, block.timestamp , _state);\n    }\n    // MANUFACTURING STUFF GOES HERE\n    \n    function addProduct(\n    \n    string memory _id,\n    string memory _name,\n    string memory _pForm\n    \n    ) public {\n        \n        Product memory pro = Product({\n            productId: _id,\n            productName: _name,\n            productForm: _pForm,\n            manufacturer: msg.sender\n        });\n        \n        products[msg.sender].push(pro);\n        productList[_id] = pro;\n        productArr.push(pro);\n        setProductPhase(_id, 'UNDER-RESEARCH');\n    \n        \n    }\n    \n    function addProductSpecs(\n    \n    string memory _productID,\n    string memory _name,\n    string memory _type,\n    string memory _strength,\n    string memory _form,\n    string memory _amount,\n    string memory _unitCost\n    \n    ) public {\n    \n        Specs memory spec = Specs({\n            materialName: _name,\n            materialType: _type,\n            materialForm: _form,\n            materialAmount: _amount,\n            materialStrength: _strength,\n            materialUnitCost: _unitCost\n            \n        });      \n        \n        productSpecs[_productID].push(spec);\n        setStdMaterialQty(_productID);\n        setProductPhase(_productID , 'REGISTERED');\n        \n    }\n    \n      \n    function getProductsByManu(address _manufacturer) public view returns(Product[] memory) {\n        return products[_manufacturer];\n    }\n    \n    function getProducts() public view returns(Product[] memory) {\n        return productArr;\n    }\n    \n    function getProductById(string memory _id) public view returns(Product memory) {\n        return productList[_id];\n    }\n    \n    function getProductSpecs(string memory _product) public view returns(Specs[] memory) {\n        return productSpecs[_product];\n    }\n    \n    function setProductPhase(string memory _product , string memory _phase) public {\n        productPhase[_product].push(_phase);\n    }\n    \n    function getProductPhase(string memory _product) public view returns (string[] memory phases) {\n       return productPhase[_product];\n    }\n    \n    // END OF MANUFACTURING STUFF\n    // COST ACCOUNTING STUFF GOES HERE\n    \n    \n    function setStdCostPlan(\n    \n    string  memory  _product,\n    uint    _unitsNo,\n    Cost memory stdCosts\n    \n        ) public {\n    \n    standardProductCosts[_product] = stdCosts;\n    standardBudgetUnits[_product] = _unitsNo;\n    \n    }\n    \n    \n    function setStdMaterialQty(string memory _product) public {\n        stdMaterialQty[_product] = productSpecs[_product][0].materialAmount;\n    }\n    \n    \n    function getStdCostPlan(string memory _product) public view returns(Cost memory ) {\n        return standardProductCosts[_product];\n    }\n    \n    // function getStdCostPlanAsTrusted (string memory _product, address _invoker)\n    // public \n    // onlyTrusted(_invoker)\n    // view \n    // returns(Cost memory) {\n    // return standardProductCosts[_product];\n    // }\n    \n    function getStdBudgetUnits(string memory _product) public view returns (uint units ) {\n        return standardBudgetUnits[_product];\n    }\n    \n    function getStdMaterialQty(string memory _product) public view returns (string memory) {\n        return stdMaterialQty[_product];\n    }\n    \n    function setActualCost(\n    \n    string memory   _product,\n    uint   _unitsNo,\n    string memory   _actualMatQty,\n    Cost memory actualCosts\n    \n    ) public {\n        \n        setActualMaterialQty(_product,_actualMatQty);\n        actualProductCosts[_product] = actualCosts;\n        actualBudgetUnits[_product] = _unitsNo;\n        setProductPhase(_product, 'PRODUCTION-READY');\n    }\n    \n    \n    function getActualCost(string memory _product) public view returns(Cost memory) {\n        \n        return actualProductCosts[_product];\n    }\n    \n    function setActualMaterialQty (string memory _product , string memory _amount) public {\n        actMaterialQty[_product] = _amount;\n    }\n    \n    function getActualMaterialQty (string memory _product) public view returns (string memory) {\n        return actMaterialQty[_product];\n    }\n    \n    function getActualBudgetUnits(string memory _product) public view returns(uint units ) {\n        return actualBudgetUnits[_product];\n    }\n    \n    function setFlexibleCosts(\n    string memory   _product,\n    uint    _unitsNo,\n    Cost memory flex\n    )\n    public {\n    \n        \n        flexibleProductCosts[_product] = flex;\n        flexibleBudgetUnits[_product] = _unitsNo;\n        \n    }\n    \n    function getFlexibleCosts(string memory _product) public view returns (Cost memory) {\n        return flexibleProductCosts[_product];\n    }\n    \n    function getFlexibleBudgetUnits(string memory _product) public view returns(uint units) {\n        return flexibleBudgetUnits[_product];\n    }\n    \n    // END OF  COST ACCOUNTING STUF\n    \n    // SUPPLYING STUFF GOES HERE\n    \n    // Creation of Material By Supplier\n    \n    function createMaterial(\n    \n    string memory _id,\n    string memory _name,\n    uint          _str,\n    string memory _form,\n    string memory _amount,\n    string memory _unitCost,\n    string memory _storageConditions,\n    bool          _stability,\n    uint          _stabilityPeriod\n    \n    ) public {\n        \n        Material memory mat = Material({\n           supplier: msg.sender,\n           materialID:   _id,\n           materialName: _name,\n           materialForm: _form,\n           materialStrength: _str,\n           createdAmount: _amount,\n           unitCost:      _unitCost,\n           storageConditions: _storageConditions,\n           materialStability: _stability,\n           materialStabilityPeriod: _stabilityPeriod,\n           materialManuDate: block.timestamp\n        });\n\n        materials[msg.sender].push(mat);\n        materialList[_id] = mat;\n        materialArr.push(mat);\n        // addToInventory(msg.sender, _id , _amount);\n        \n    }\n    \n    function setMaterialCostPlan (\n    string memory _materialID,\n    MaterialProductionCost memory matCost\n    )\n    \n    public {\n\n        materialCostPlan[_materialID] = matCost;\n        \n    }\n    \n    function getMaterialCostPlan(string memory _material) public view returns(MaterialProductionCost memory) {\n        return materialCostPlan[_material];\n    }\n    \n    \n    function getMaterialsBySupplier(address _supplier) public view returns(Material[] memory ) {\n        return materials[_supplier];\n    }\n    \n    \n    // Materials to filter through\n    \n    function getMaterials() public view returns(Material[] memory) {\n        return materialArr;\n    }\n    \n    function getMaterialById (string memory _materialId) public view returns(Material memory) {\n        return materialList[_materialId];\n    }\n    \n\n    function createRequest(\n    \n    address _to ,\n    string memory _productId,\n    string memory _materialId,\n    string memory _amount,\n    string memory _requestCost\n    )\n    public {\n        trackNoCount += 1;\n        Request memory req = Request({\n           productID: _productId,\n           requestId: trackNoCount,\n           fromParti: msg.sender,\n           toParti: _to,\n           materialID : _materialId,\n           amount: _amount,\n           issueTime: block.timestamp\n        });\n        \n        // requestCost[req.requestId] = req.amount * materialList[_materialId].unitCost; \n        requestCost[req.requestId] = _requestCost;\n        requests[msg.sender].push(req);\n        requestList[req.requestId] = req;\n        productRequests[_productId].push(req);\n        emit requestStateUpdate(msg.sender, block.timestamp , 'REQUEST CREATED');\n    }\n    \n    function createBatchRequest(\n    address _fromParti2,\n    address _to,\n    string memory _materialId,\n    string memory _amount,\n     string memory _requestCost\n    ) \n    public {\n        trackNoCount += 1;\n        BatchRequest memory batchReq = BatchRequest({\n            requestId: trackNoCount,\n            fromParti1: msg.sender,\n            fromParti2: _fromParti2,\n            toParti: _to,\n            materialID: _materialId,\n            amount: _amount,\n            issueTime: block.timestamp\n        });\n        \n        // requestCost[batchReq.requestId] = batchReq.amount * materialList[_materialId].unitCost;\n        requestCost[batchReq.requestId] = _requestCost;\n        batchRequestsList[batchReq.requestId] = batchReq;\n        batchRequests[msg.sender].push(batchReq);\n        emit requestStateUpdate(msg.sender, block.timestamp , 'BATCH REQUEST CREATED');\n        \n    }\n    \n    function getRequestCost(uint _id) public view returns(string memory) {\n        return requestCost[_id];\n    }\n    \n    function getMyRequests(address _parti) public view returns (Request[] memory) {\n        \n        return requests[_parti];\n    }\n\n    \n    function getMyBatchRequests() public view returns (BatchRequest[] memory) {\n        return batchRequests[msg.sender];\n    }\n    \n    function getRequestById(uint _id) public view returns (Request memory) {\n        return requestList[_id];\n    }\n    \n    function getProductRequests(string memory _product) public view returns (Request[] memory) {\n        \n        return productRequests[_product];\n    }\n    \n    // function addToInventory(address _participant , string memory _item , string memory _amount) public {\n    //     InventoryItem memory itm = InventoryItem({\n    //         itemId: _item,\n    //         amount: _amount\n    //     });\n        \n    //     inventory[_participant].push(itm);\n    //     inventoryList[_item] = itm;\n    // }\n    \n    // function updateInventory(address _participant , string memory _item , string memory _amount) public {\n        \n    //     if(strComp(_item, inventory[_participant][0].itemId) ) {\n    //         inventory[_participant][0].amount = _amount;\n    //         inventoryList[_item].amount = _amount;\n            \n    //     }\n    // }\n    \n    // function getInventory(address _participant) public view returns (InventoryItem[] memory) {\n    //     return inventory[_participant];\n    // }\n    \n    // function getInventoryItemById(string memory _item) public view returns (InventoryItem memory) {\n    //     return inventoryList[_item];\n    // }\n    \n    // END OF SUPPLYING STUFF\n    // BANKING STUFF GOES HERE\n    \n    function setAsBank(address _addr) public {\n        bank = _addr;\n        \n    }\n    \n    function getBank() public view returns (address) {\n        return bank;\n    }\n    \n    function createBankAccount(address _userAddr, string memory _userName) public {\n        \n        BankAccount memory account = BankAccount({\n            \n            userId:  _userAddr,\n            userName: _userName,\n            userBalance: 0,\n            isActive: true\n            \n        });\n        \n        userBankAccounts[bank][_userAddr] = account;\n        \n    }\n    \n    function hasBankAccount(address _userAddr) public view returns (bool) {\n        if (userBankAccounts[bank][_userAddr].isActive != false) {\n            return true;\n        }\n        else {\n            return false;\n        }\n    }\n    \n    function deposit (address _userAddr, uint _amount) public returns (bool) {\n        \n        require (_amount > 0, 'INVALID');\n        if ( userBankAccounts[bank][_userAddr].userId == _userAddr) {\n            uint balance = userBankAccounts[bank][_userAddr].userBalance;\n            balance += _amount;\n            userBankAccounts[bank][_userAddr].userBalance = balance;\n            emit BankTransact ('DEPOSIT', _userAddr , _userAddr , _amount , block.timestamp);\n            return true;\n        }\n        else {\n            return false;\n        }\n        \n    }\n    \n    function withdraw (address _userAddr, uint _amount) public returns (bool) {\n        \n        require(userBankAccounts[bank][_userAddr].userBalance > _amount , 'INSUFFICIENTBAL' );\n        if (userBankAccounts[bank][_userAddr].userId == _userAddr) {\n            \n            uint balance = userBankAccounts[bank][_userAddr].userBalance;\n            balance -= _amount;\n            userBankAccounts[bank][_userAddr].userBalance = balance;\n            emit BankTransact ('WITHDRAWAL', _userAddr , _userAddr , _amount , block.timestamp);\n            return true;\n        }\n        else {\n            return false;\n        }\n    }\n\n    function getBalance (address _userAddr) public view returns (uint x) {\n        \n         if (userBankAccounts[bank][_userAddr].userId == _userAddr) {\n             uint balance = userBankAccounts[bank][_userAddr].userBalance;\n             return balance;\n        }\n    }\n\n    \n    function transfer (address _from, address _to , uint _amount) public returns (bool) {\n        \n         require(userBankAccounts[bank][_from].userBalance >= _amount ,\n         'INSUFFICIENTBAL' );\n         \n        if (userBankAccounts[bank][_from].userId == _from && userBankAccounts[bank][_to].isActive == true) {\n            \n            uint fromBalance = userBankAccounts[bank][_from].userBalance;\n            uint toBalance = userBankAccounts[bank][_to].userBalance;\n            fromBalance -= _amount;\n            toBalance += _amount;\n            userBankAccounts[bank][_from].userBalance = fromBalance;\n            userBankAccounts[bank][_to].userBalance = toBalance;\n            emit BankTransact ('TRANSFER', _from , _to , _amount , block.timestamp);\n            return true;\n        }\n        else {\n            return false;\n        }\n        \n    }\n    \n    function getAccountDetails(address _account) public view returns (BankAccount memory) {\n        return userBankAccounts[bank][_account];\n    }\n    \n    \n    // END OF BANKING STUFF\n// END OF CONTRACT\n\n}",
  "sourcePath": "/Users/mohamedkaram/Documents/Projects/PharmaChain/contracts/PharmaChain.sol",
  "compiler": {
    "name": "solc",
    "version": "0.8.0+commit.c7dfd78e.Emscripten.clang"
  },
  "schemaVersion": "3.4.2",
  "updatedAt": "2021-08-02T21:24:07.655Z",
  "networkType": "ethereum",
  "devdoc": {
    "kind": "dev",
    "methods": {},
    "version": 1
  },
  "userdoc": {
    "kind": "user",
    "methods": {},
    "version": 1
  }
}